C51 COMPILER V9.51   CYPM                                                                  11/20/2019 09:16:33 PAGE 1   


C51 COMPILER V9.51, COMPILATION OF MODULE CYPM
OBJECT MODULE PLACED IN .\DP8051\DP8051_Keil_951\Debug\cyPm.obj
COMPILER INVOKED BY: C:\Program Files\Cypress\PSoC Creator\4.2\PSoC Creator\import\keil\pk51\9.51\C51\BIN\c51.exe Genera
                    -ted_Source\PSoC3\cyPm.c NOIV LARGE MODDP2 OMF2 VB(1) NOIP INCDIR(.,Generated_Source\PSoC3) FF(3) DB DF(DEBUG) WL(2) PR(.
                    -\DP8051\DP8051_Keil_951\Debug/cyPm.lst) CD OT(2,SIZE) OJ(.\DP8051\DP8051_Keil_951\Debug\cyPm.obj)

line level    source

   1          /***************************************************************************//**
   2          * \file cyPm.c
   3          * \version 5.70
   4          *
   5          * \brief Provides an API for the power management.
   6          *
   7          * \note Documentation of the API's in this file is located in the
   8          *  System Reference Guide provided with PSoC Creator.
   9          *
  10          ********************************************************************************
  11          * \copyright
  12          * Copyright 2008-2018, Cypress Semiconductor Corporation.  All rights reserved.
  13          * You may use this file only in accordance with the license, terms, conditions,
  14          * disclaimers, and limitations in the end user license agreement accompanying
  15          * the software package with which this file was provided.
  16          *******************************************************************************/
  17          
  18          #include "cyPm.h"
  19          #include "cyapicallbacks.h"
  20          
  21          
  22          /*******************************************************************
  23          * Place your includes, defines, and code here. Do not use the merge
  24          * region below unless any component datasheet suggests doing so.
  25          *******************************************************************/
  26          /* `#START CY_PM_HEADER_INCLUDE` */
  27          
  28          /* `#END` */
  29          
  30          
  31          static CY_PM_BACKUP_STRUCT          cyPmBackup;
  32          static CY_PM_CLOCK_BACKUP_STRUCT    cyPmClockBackup;
  33          
  34          /* Convertion table between register's values and frequency in MHz  */
  35          static const uint8 CYCODE cyPmImoFreqReg2Mhz[7u] = {12u, 6u, 24u, 3u, 48u, 62u, 74u};
  36          
  37          /* Function Prototypes */
  38          static void CyPmHibSaveSet(void);
  39          static void CyPmHibRestore(void) ;
  40          
  41          static void CyPmHibSlpSaveSet(void) ;
  42          static void CyPmHibSlpRestore(void) ;
  43          
  44          static void CyPmHviLviSaveDisable(void) ;
  45          static void CyPmHviLviRestore(void) ;
  46          
  47          
  48          /*******************************************************************************
  49          * Function Name: CyPmSaveClocks
  50          ****************************************************************************//**
  51          *
  52          *  This function is called in preparation for entering sleep or hibernate low
  53          *  power modes. Saves all the states of the clocking system that do not persist
C51 COMPILER V9.51   CYPM                                                                  11/20/2019 09:16:33 PAGE 2   

  54          *  during sleep/hibernate or that need to be altered in preparation for
  55          *  sleep/hibernate. Shutdowns all the digital and analog clock dividers for the
  56          *  active power mode configuration.
  57          *
  58          *  Switches the master clock over to the IMO and shuts down the PLL and MHz
  59          *  Crystal. The IMO frequency is set to either 12 MHz or 48 MHz to match the
  60          *  Design-Wide Resources System Editor "Enable Fast IMO During Startup" setting.
  61          *  The ILO and 32 KHz oscillators are not impacted. The current Flash wait state
  62          *  setting is saved and the Flash wait state setting is set for the current IMO
  63          *  speed.
  64          *
  65          *  Note If the Master Clock source is routed through the DSI inputs, then it
  66          *  must be set manually to another source before using the
  67          *  CyPmSaveClocks()/CyPmRestoreClocks() functions.
  68          *
  69          * \sideeffect
  70          *  All peripheral clocks are going to be off after this API method call.
  71          *
  72          *******************************************************************************/
  73          void CyPmSaveClocks(void) 
  74          {
  75   1          /* Digital and analog clocks - save enable state and disable them all */
  76   1          cyPmClockBackup.enClkA = CY_PM_ACT_CFG1_REG & CY_PM_ACT_EN_CLK_A_MASK;
  77   1          cyPmClockBackup.enClkD = CY_PM_ACT_CFG2_REG;
  78   1          CY_PM_ACT_CFG1_REG &= ((uint8)(~CY_PM_ACT_EN_CLK_A_MASK));
  79   1          CY_PM_ACT_CFG2_REG &= ((uint8)(~CY_PM_ACT_EN_CLK_D_MASK));
  80   1      
  81   1          /* Save current flash wait cycles and set the maximum value */
  82   1          cyPmClockBackup.flashWaitCycles = CY_PM_CACHE_CR_CYCLES_MASK & CY_PM_CACHE_CR_REG;
  83   1          CyFlash_SetWaitCycles(CY_PM_MAX_FLASH_WAIT_CYCLES);
  84   1      
  85   1          /* IMO - save current IMO MHz OSC frequency and USB mode is on bit */
  86   1          cyPmClockBackup.imoFreq = CY_PM_FASTCLK_IMO_CR_REG & CY_PM_FASTCLK_IMO_CR_FREQ_MASK;
  87   1          cyPmClockBackup.imoUsbClk = CY_PM_FASTCLK_IMO_CR_REG & CY_PM_FASTCLK_IMO_CR_USB;
  88   1      
  89   1          /* IMO doubler - save enable state */
  90   1          if(0u != (CY_PM_FASTCLK_IMO_CR_REG & CY_PM_FASTCLK_IMO_CR_F2XON))
  91   1          {
  92   2              /* IMO doubler enabled - save and disable */
  93   2              cyPmClockBackup.imo2x = CY_PM_ENABLED;
  94   2          }
  95   1          else
  96   1          {
  97   2              /* IMO doubler disabled */
  98   2              cyPmClockBackup.imo2x = CY_PM_DISABLED;
  99   2          }
 100   1      
 101   1          /* Master clock - save source */
 102   1          cyPmClockBackup.masterClkSrc = CY_PM_CLKDIST_MSTR1_REG & CY_PM_MASTER_CLK_SRC_MASK;
 103   1      
 104   1          /* Switch Master clock's source from PLL's output to PLL's source */
 105   1          if(CY_MASTER_SOURCE_PLL == cyPmClockBackup.masterClkSrc)
 106   1          {
 107   2              switch (CY_PM_CLKDIST_CR_REG & CY_PM_CLKDIST_PLL_SRC_MASK)
 108   2              {
 109   3              case CY_PM_CLKDIST_PLL_SRC_IMO:
 110   3                  CyMasterClk_SetSource(CY_MASTER_SOURCE_IMO);
 111   3                  break;
 112   3      
 113   3              case CY_PM_CLKDIST_PLL_SRC_XTAL:
 114   3                  CyMasterClk_SetSource(CY_MASTER_SOURCE_XTAL);
 115   3                  break;
C51 COMPILER V9.51   CYPM                                                                  11/20/2019 09:16:33 PAGE 3   

 116   3      
 117   3              case CY_PM_CLKDIST_PLL_SRC_DSI:
 118   3                  CyMasterClk_SetSource(CY_MASTER_SOURCE_DSI);
 119   3                  break;
 120   3      
 121   3              default:
 122   3                  CYASSERT(0u != 0u);
 123   3                  break;
 124   3              }
 125   2          }
 126   1      
 127   1          /* PLL - check enable state, disable if needed */
 128   1          if(0u != (CY_PM_FASTCLK_PLL_CFG0_REG & CY_PM_PLL_CFG0_ENABLE))
 129   1          {
 130   2              /* PLL is enabled - save state and disable */
 131   2              cyPmClockBackup.pllEnableState = CY_PM_ENABLED;
 132   2              CyPLL_OUT_Stop();
 133   2          }
 134   1          else
 135   1          {
 136   2              /* PLL is disabled - save state */
 137   2              cyPmClockBackup.pllEnableState = CY_PM_DISABLED;
 138   2          }
 139   1      
 140   1          /* IMO - set appropriate frequency for LPM */
 141   1          CyIMO_SetFreq(CY_PM_IMO_FREQ_LPM);
 142   1      
 143   1          /* IMO - save enable state and enable without wait to settle */
 144   1          if(0u != (CY_PM_ACT_CFG0_IMO & CY_PM_ACT_CFG0_REG))
 145   1          {
 146   2              /* IMO - save enabled state */
 147   2              cyPmClockBackup.imoEnable = CY_PM_ENABLED;
 148   2          }
 149   1          else
 150   1          {
 151   2              /* IMO - save disabled state */
 152   2              cyPmClockBackup.imoEnable = CY_PM_DISABLED;
 153   2      
 154   2              /* Enable the IMO. Use software delay instead of the FTW-based inside */
 155   2              CyIMO_Start(CY_PM_IMO_NO_WAIT_TO_SETTLE);
 156   2      
 157   2              /* Settling time of the IMO is of the order of less than 6us */
 158   2              CyDelayUs(6u);
 159   2          }
 160   1      
 161   1          /* IMO - save the current IMOCLK source and set to IMO if not yet */
 162   1          if(0u != (CY_PM_FASTCLK_IMO_CR_REG & CY_PM_FASTCLK_IMO_CR_XCLKEN))
 163   1          {
 164   2              /* DSI or XTAL CLK */
 165   2              cyPmClockBackup.imoClkSrc =
 166   2                  (0u == (CY_PM_CLKDIST_CR_REG & CY_PM_CLKDIST_IMO2X_SRC)) ? CY_IMO_SOURCE_DSI : CY_IMO_SOURCE_X
             -TAL;
 167   2      
 168   2              /* IMO -  set IMOCLK source to IMO */
 169   2              CyIMO_SetSource(CY_IMO_SOURCE_IMO);
 170   2          }
 171   1          else
 172   1          {
 173   2              /* IMO */
 174   2              cyPmClockBackup.imoClkSrc = CY_IMO_SOURCE_IMO;
 175   2          }
 176   1      
C51 COMPILER V9.51   CYPM                                                                  11/20/2019 09:16:33 PAGE 4   

 177   1          /* Save clk_imo source */
 178   1          cyPmClockBackup.clkImoSrc = CY_PM_CLKDIST_CR_REG & CY_PM_CLKDIST_IMO_OUT_MASK;
 179   1      
 180   1          /* If IMOCLK2X or SPC OSC is source for clk_imo, set it to IMOCLK */
 181   1          if(CY_PM_CLKDIST_IMO_OUT_IMO != cyPmClockBackup.clkImoSrc)
 182   1          {
 183   2              /* Set IMOCLK to source for clk_imo */
 184   2              CY_PM_CLKDIST_CR_REG = (CY_PM_CLKDIST_CR_REG & ((uint8)(~CY_PM_CLKDIST_IMO_OUT_MASK))) |
 185   2                                      CY_PM_CLKDIST_IMO_OUT_IMO;
 186   2          }    /* Need to change nothing if IMOCLK is source clk_imo */
 187   1      
 188   1          /* IMO doubler - disable it (saved above) */
 189   1          if(0u != (CY_PM_FASTCLK_IMO_CR_REG & CY_PM_FASTCLK_IMO_CR_F2XON))
 190   1          {
 191   2              CyIMO_DisableDoubler();
 192   2          }
 193   1      
 194   1          /* Master clock - save divider and set it to divide-by-one (if no yet) */
 195   1          cyPmClockBackup.clkSyncDiv = CY_PM_CLKDIST_MSTR0_REG;
 196   1          if(CY_PM_DIV_BY_ONE != cyPmClockBackup.clkSyncDiv)
 197   1          {
 198   2              CyMasterClk_SetDivider(CY_PM_DIV_BY_ONE);
 199   2          }    /* No change if master clock divider is 1 */
 200   1      
 201   1          /* Master clock source - set it to IMO if not yet. */
 202   1          if(CY_MASTER_SOURCE_IMO != cyPmClockBackup.masterClkSrc)
 203   1          {
 204   2              CyMasterClk_SetSource(CY_MASTER_SOURCE_IMO);
 205   2          }    /* No change if master clock source is IMO */
 206   1      
 207   1          /* Bus clock - save divider and set it, if needed, to divide-by-one */
 208   1          cyPmClockBackup.clkBusDiv = (uint16) ((uint16) CY_PM_CLK_BUS_MSB_DIV_REG << 8u);
 209   1          cyPmClockBackup.clkBusDiv |= CY_PM_CLK_BUS_LSB_DIV_REG;
 210   1          if(CY_PM_BUS_CLK_DIV_BY_ONE != cyPmClockBackup.clkBusDiv)
 211   1          {
 212   2              CyBusClk_SetDivider(CY_PM_BUS_CLK_DIV_BY_ONE);
 213   2          }    /* Do nothing if saved and actual values are equal */
 214   1      
 215   1          /* Set number of wait cycles for flash according to CPU frequency in MHz */
 216   1          CyFlash_SetWaitCycles((uint8)CY_PM_GET_CPU_FREQ_MHZ);
 217   1      
 218   1          /* MHz ECO - check enable state and disable if needed */
 219   1          if(0u != (CY_PM_FASTCLK_XMHZ_CSR_REG & CY_PM_XMHZ_CSR_ENABLE))
 220   1          {
 221   2              /* MHz ECO is enabled - save state and disable */
 222   2              cyPmClockBackup.xmhzEnableState = CY_PM_ENABLED;
 223   2              CyXTAL_Stop();
 224   2          }
 225   1          else
 226   1          {
 227   2              /* MHz ECO is disabled - save state */
 228   2              cyPmClockBackup.xmhzEnableState = CY_PM_DISABLED;
 229   2          }
 230   1      
 231   1      
 232   1          /***************************************************************************
 233   1          * Save the enable state of delay between the system bus clock and each of the
 234   1          * 4 individual analog clocks. This bit non-retention and its value should
 235   1          * be restored on wakeup.
 236   1          ***************************************************************************/
 237   1          if(0u != (CY_PM_CLKDIST_DELAY_REG & CY_PM_CLKDIST_DELAY_EN))
 238   1          {
C51 COMPILER V9.51   CYPM                                                                  11/20/2019 09:16:33 PAGE 5   

 239   2              cyPmClockBackup.clkDistDelay = CY_PM_ENABLED;
 240   2          }
 241   1          else
 242   1          {
 243   2              cyPmClockBackup.clkDistDelay = CY_PM_DISABLED;
 244   2          }
 245   1      }
 246          
 247          
 248          /*******************************************************************************
 249          * Function Name: CyPmRestoreClocks
 250          ****************************************************************************//**
 251          *
 252          *  Restores any state that was preserved by the last call to CyPmSaveClocks().
 253          *  The Flash wait state setting is also restored.
 254          *
 255          *  Note If the Master Clock source is routed through the DSI inputs, then it
 256          *  must be set manually to another source before using the
 257          *  CyPmSaveClocks()/CyPmRestoreClocks() functions.
 258          *
 259          *  PSoC 3 and PSoC 5LP:
 260          *  The merge region could be used to process state when the megahertz crystal is
 261          *  not ready after a hold-off timeout.
 262          *
 263          *  PSoC 5:
 264          *  The 130 ms is given for the megahertz crystal to stabilize. Its readiness is
 265          *  not verified after a hold-off timeout.
 266          *
 267          *******************************************************************************/
 268          void CyPmRestoreClocks(void) 
 269          {
 270   1          cystatus status = CYRET_TIMEOUT;
 271   1          uint16 i;
 272   1          uint16 clkBusDivTmp;
 273   1      
 274   1      
 275   1          /* Convertion table between CyIMO_SetFreq() parameters and register's value */
 276   1          const uint8 CYCODE cyPmImoFreqMhz2Reg[7u] = {
 277   1              CY_IMO_FREQ_12MHZ, CY_IMO_FREQ_6MHZ,  CY_IMO_FREQ_24MHZ, CY_IMO_FREQ_3MHZ,
 278   1              CY_IMO_FREQ_48MHZ, 5u, 6u};
 279   1      
 280   1          /* Restore enable state of delay between system bus clock and ACLKs. */
 281   1          if(CY_PM_ENABLED == cyPmClockBackup.clkDistDelay)
 282   1          {
 283   2              /* Delay for both bandgap and delay line to settle out */
 284   2              CyDelayCycles((uint32)(CY_PM_CLK_DELAY_BANDGAP_SETTLE_US + CY_PM_CLK_DELAY_BIAS_SETTLE_US) *
 285   2                              CY_PM_GET_CPU_FREQ_MHZ);
 286   2      
 287   2              CY_PM_CLKDIST_DELAY_REG |= CY_PM_CLKDIST_DELAY_EN;
 288   2          }
 289   1      
 290   1          /* MHz ECO restore state */
 291   1          if(CY_PM_ENABLED == cyPmClockBackup.xmhzEnableState)
 292   1          {
 293   2              /***********************************************************************
 294   2              * Enabling XMHZ XTAL. The actual CyXTAL_Start() with a non zero wait
 295   2              * period uses FTW for period measurement. This could cause a problem
 296   2              * if CTW/FTW is used as a wake up time in the low power modes APIs.
 297   2              * So, the XTAL wait procedure is implemented with a software delay.
 298   2              ***********************************************************************/
 299   2      
 300   2              /* Enable XMHZ XTAL with no wait */
C51 COMPILER V9.51   CYPM                                                                  11/20/2019 09:16:33 PAGE 6   

 301   2              (void) CyXTAL_Start(CY_PM_XTAL_MHZ_NO_WAIT);
 302   2      
 303   2              /* Read XERR bit to clear it */
 304   2              (void) CY_PM_FASTCLK_XMHZ_CSR_REG;
 305   2      
 306   2              /* Wait */
 307   2              for(i = CY_PM_MHZ_XTAL_WAIT_NUM_OF_200_US; i > 0u; i--)
 308   2              {
 309   3                  /* Make a 200 microseconds delay */
 310   3                  CyDelayCycles((uint32)CY_PM_WAIT_200_US * CY_PM_GET_CPU_FREQ_MHZ);
 311   3      
 312   3                  /* High output indicates oscillator failure */
 313   3                  if(0u == (CY_PM_FASTCLK_XMHZ_CSR_REG & CY_PM_XMHZ_CSR_XERR))
 314   3                  {
 315   4                      status = CYRET_SUCCESS;
 316   4                      break;
 317   4                  }
 318   3              }
 319   2      
 320   2              if(CYRET_TIMEOUT == status)
 321   2              {
 322   3                  /*******************************************************************
 323   3                  * Process the situation when megahertz crystal is not ready.
 324   3                  * Time to stabilize the value is crystal specific.
 325   3                  *******************************************************************/
 326   3                 /* `#START_MHZ_ECO_TIMEOUT` */
 327   3      
 328   3                 /* `#END` */
 329   3      
 330   3              #ifdef CY_BOOT_CY_PM_RESTORE_CLOCKS_ECO_TIMEOUT_CALLBACK
                          CyBoot_CyPmRestoreClocks_EcoTimeout_Callback();
                      #endif /* CY_BOOT_CY_PM_RESTORE_CLOCKS_ECO_TIMEOUT_CALLBACK */
 333   3              }
 334   2          }   /* (CY_PM_ENABLED == cyPmClockBackup.xmhzEnableState) */
 335   1      
 336   1      
 337   1          /* Temporary set maximum flash wait cycles */
 338   1          CyFlash_SetWaitCycles(CY_PM_MAX_FLASH_WAIT_CYCLES);
 339   1      
 340   1          /* XTAL and DSI clocks are ready to be source for Master clock. */
 341   1          if((CY_PM_MASTER_CLK_SRC_XTAL == cyPmClockBackup.masterClkSrc) ||
 342   1             (CY_PM_MASTER_CLK_SRC_DSI  == cyPmClockBackup.masterClkSrc))
 343   1          {
 344   2              /* Restore Master clock's divider */
 345   2              if(CY_PM_CLKDIST_MSTR0_REG != cyPmClockBackup.clkSyncDiv)
 346   2              {
 347   3                  /* Restore Master clock divider */
 348   3                  CyMasterClk_SetDivider(cyPmClockBackup.clkSyncDiv);
 349   3              }
 350   2      
 351   2              /* Restore Master clock source */
 352   2              CyMasterClk_SetSource(cyPmClockBackup.masterClkSrc);
 353   2          }
 354   1      
 355   1          /* IMO - restore IMO frequency */
 356   1          if((0u != (cyPmClockBackup.imoUsbClk & CY_PM_FASTCLK_IMO_CR_USB)) &&
 357   1              (CY_IMO_FREQ_24MHZ == cyPmImoFreqMhz2Reg[cyPmClockBackup.imoFreq]))
 358   1          {
 359   2              /* Restore IMO frequency (24 MHz) and trim it for USB */
 360   2              CyIMO_SetFreq(CY_IMO_FREQ_USB);
 361   2          }
 362   1          else
C51 COMPILER V9.51   CYPM                                                                  11/20/2019 09:16:33 PAGE 7   

 363   1          {
 364   2              /* Restore IMO frequency */
 365   2              CyIMO_SetFreq(cyPmImoFreqMhz2Reg[cyPmClockBackup.imoFreq]);
 366   2      
 367   2              if(0u != (cyPmClockBackup.imoUsbClk & CY_PM_FASTCLK_IMO_CR_USB))
 368   2              {
 369   3                  CY_PM_FASTCLK_IMO_CR_REG |= CY_PM_FASTCLK_IMO_CR_USB;
 370   3              }
 371   2              else
 372   2              {
 373   3                  CY_PM_FASTCLK_IMO_CR_REG &= ((uint8)(~CY_PM_FASTCLK_IMO_CR_USB));
 374   3              }
 375   2          }
 376   1      
 377   1          /* IMO - restore enable state if needed */
 378   1          if((CY_PM_ENABLED == cyPmClockBackup.imoEnable) &&
 379   1             (0u == (CY_PM_ACT_CFG0_IMO & CY_PM_ACT_CFG0_REG)))
 380   1          {
 381   2              /* IMO - restore enabled state */
 382   2              CyIMO_Start(CY_PM_IMO_NO_WAIT_TO_SETTLE);
 383   2          }
 384   1      
 385   1          /* IMO - restore IMOCLK source */
 386   1          CyIMO_SetSource(cyPmClockBackup.imoClkSrc);
 387   1      
 388   1          /* Restore IMO doubler enable state (turned off by CyPmSaveClocks()) */
 389   1          if(CY_PM_ENABLED == cyPmClockBackup.imo2x)
 390   1          {
 391   2              CyIMO_EnableDoubler();
 392   2          }
 393   1      
 394   1          /* IMO - restore clk_imo source, if needed */
 395   1          if(cyPmClockBackup.clkImoSrc != (CY_PM_CLKDIST_CR_REG & CY_PM_CLKDIST_IMO_OUT_MASK))
 396   1          {
 397   2              CY_PM_CLKDIST_CR_REG = (CY_PM_CLKDIST_CR_REG & ((uint8)(~CY_PM_CLKDIST_IMO_OUT_MASK))) |
 398   2                                      cyPmClockBackup.clkImoSrc;
 399   2          }
 400   1      
 401   1      
 402   1          /* PLL restore state */
 403   1          if(CY_PM_ENABLED == cyPmClockBackup.pllEnableState)
 404   1          {
 405   2              /***********************************************************************
 406   2              * Enable PLL. The actual CyPLL_OUT_Start() without wait period uses FTW
 407   2              * for period measurement. This could cause a problem if CTW/FTW is used
 408   2              * as a wakeup time in the low power modes APIs. To omit this issue PLL
 409   2              * wait procedure is implemented with a software delay.
 410   2              ***********************************************************************/
 411   2              status = CYRET_TIMEOUT;
 412   2      
 413   2              /* Enable PLL */
 414   2              (void) CyPLL_OUT_Start(CY_PM_PLL_OUT_NO_WAIT);
 415   2      
 416   2              /* Read to clear lock status after delay */
 417   2              CyDelayUs((uint32)80u);
 418   2              (void) CY_PM_FASTCLK_PLL_SR_REG;
 419   2      
 420   2              /* It should take 250 us lock: 251-80 = 171 */
 421   2              for(i = 171u; i > 0u; i--)
 422   2              {
 423   3                  CyDelayUs((uint32)1u);
 424   3      
C51 COMPILER V9.51   CYPM                                                                  11/20/2019 09:16:33 PAGE 8   

 425   3                  /* Accept PLL is OK after two consecutive polls indicate PLL lock */
 426   3                  if((0u != (CY_PM_FASTCLK_PLL_SR_REG & CY_PM_FASTCLK_PLL_LOCKED)) &&
 427   3                     (0u != (CY_PM_FASTCLK_PLL_SR_REG & CY_PM_FASTCLK_PLL_LOCKED)))
 428   3                  {
 429   4                      status = CYRET_SUCCESS;
 430   4                      break;
 431   4                  }
 432   3              }
 433   2      
 434   2              if(CYRET_TIMEOUT == status)
 435   2              {
 436   3                  /*******************************************************************
 437   3                  * Process the situation when PLL is not ready.
 438   3                  *******************************************************************/
 439   3                 /* `#START_PLL_TIMEOUT` */
 440   3      
 441   3                 /* `#END` */
 442   3      
 443   3              #ifdef CY_BOOT_CY_PM_RESTORE_CLOCKS_PLL_TIMEOUT_CALLBACK
                          CyBoot_CyPmRestoreClocks_PllTimeout_Callback();
                      #endif /* CY_BOOT_CY_PM_RESTORE_CLOCKS_PLL_TIMEOUT_CALLBACK */
 446   3              }
 447   2          }   /* (CY_PM_ENABLED == cyPmClockBackup.pllEnableState) */
 448   1      
 449   1      
 450   1          /* PLL and IMO is ready to be source for Master clock */
 451   1          if((CY_PM_MASTER_CLK_SRC_IMO == cyPmClockBackup.masterClkSrc) ||
 452   1             (CY_PM_MASTER_CLK_SRC_PLL == cyPmClockBackup.masterClkSrc))
 453   1          {
 454   2              /* Restore Master clock divider */
 455   2              if(CY_PM_CLKDIST_MSTR0_REG != cyPmClockBackup.clkSyncDiv)
 456   2              {
 457   3                  CyMasterClk_SetDivider(cyPmClockBackup.clkSyncDiv);
 458   3              }
 459   2      
 460   2              /* Restore Master clock source */
 461   2              CyMasterClk_SetSource(cyPmClockBackup.masterClkSrc);
 462   2          }
 463   1      
 464   1          /* IMO - disable if it was originally disabled */
 465   1          if((CY_PM_DISABLED == cyPmClockBackup.imoEnable) &&
 466   1             (0u != (CY_PM_ACT_CFG0_IMO & CY_PM_ACT_CFG0_REG)))
 467   1          {
 468   2              CyIMO_Stop();
 469   2          }
 470   1      
 471   1          /* Bus clock - restore divider, if needed */
 472   1          clkBusDivTmp = (uint16) ((uint16)CY_PM_CLK_BUS_MSB_DIV_REG << 8u);
 473   1          clkBusDivTmp |= CY_PM_CLK_BUS_LSB_DIV_REG;
 474   1          if(cyPmClockBackup.clkBusDiv != clkBusDivTmp)
 475   1          {
 476   2              CyBusClk_SetDivider(cyPmClockBackup.clkBusDiv);
 477   2          }
 478   1      
 479   1          /* Restore flash wait cycles */
 480   1          CY_PM_CACHE_CR_REG = ((CY_PM_CACHE_CR_REG & ((uint8)(~CY_PM_CACHE_CR_CYCLES_MASK))) |
 481   1                                 cyPmClockBackup.flashWaitCycles);
 482   1      
 483   1          /* Digital and analog clocks - restore state */
 484   1          CY_PM_ACT_CFG1_REG = cyPmClockBackup.enClkA;
 485   1          CY_PM_ACT_CFG2_REG = cyPmClockBackup.enClkD;
 486   1      }
C51 COMPILER V9.51   CYPM                                                                  11/20/2019 09:16:33 PAGE 9   

 487          
 488          
 489          /*******************************************************************************
 490          * Function Name: CyPmAltAct
 491          ****************************************************************************//**
 492          *
 493          *  Puts the part into the Alternate Active (Standby) state. The Alternate Active
 494          *  state can allow for any of the capabilities of the device to be active, but
 495          *  the operation of this function is dependent on the CPU being disabled during
 496          *  the Alternate Active state. The configuration code and the component APIs
 497          *  will configure the template for the Alternate Active state to be the same as
 498          *  the Active state with the exception that the CPU will be disabled during
 499          *  Alternate Active.
 500          *
 501          *  Note Before calling this function, you must manually configure the power mode
 502          *  of the source clocks for the timer that is used as the wakeup timer.
 503          *
 504          *  PSoC 3:
 505          *  Before switching to Alternate Active, if a wakeupTime other than NONE is
 506          *  specified, then the appropriate timer state is configured as specified with
 507          *  the interrupt for that timer disabled.  The wakeup source will be the
 508          *  combination of the values specified in the wakeupSource and any timer
 509          *  specified in the wakeupTime argument.  Once the wakeup condition is
 510          *  satisfied, then all saved state is restored and the function returns in the
 511          *  Active state.
 512          *
 513          *  Note that if the wakeupTime is made with a different value, the period before
 514          *  the wakeup occurs can be significantly shorter than the specified time.  If
 515          *  the next call is made with the same wakeupTime value, then the wakeup will
 516          *  occur the specified period after the previous wakeup occurred.
 517          *
 518          *  If a wakeupTime other than NONE is specified, then upon exit the state of the
 519          *  specified timer will be left as specified by wakeupTime with the timer
 520          *  enabled and the interrupt disabled.  If the CTW, FTW or One PPS is already
 521          *  configured for wakeup, for example with the SleepTimer or RTC components,
 522          *  then specify NONE for the wakeupTime and include the appropriate source for
 523          *  wakeupSource.
 524          *
 525          *  PSoC 5LP:
 526          *  This function is used to both enter the Alternate Active mode and halt the
 527          *  processor.  For PSoC 3 these two actions must be paired together.  With PSoC
 528          *  5LP the processor can be halted independently with the __WFI() function from
 529          *  the CMSIS library that is included in Creator.  This function should be used
 530          *  instead when the action required is just to halt the processor until an
 531          *  enabled interrupt occurs.
 532          *
 533          *  The wakeupTime parameter is not used for this device. It must be set to zero
 534          *  (PM_ALT_ACT_TIME_NONE). The wake up time configuration can be done by a
 535          *  separate component: the CTW wakeup interval should be configured with the
 536          *  Sleep Timer component and one second interval should be configured with the
 537          *  RTC component.
 538          *
 539          *  The wakeup behavior depends on the wakeupSource parameter in the following
 540          *  manner: upon function execution the device will be switched from Active to
 541          *  Alternate Active mode and then the CPU will be halted. When an enabled wakeup
 542          *  event occurs the device will return to Active mode.  Similarly when an
 543          *  enabled interrupt occurs the CPU will be started. These two actions will
 544          *  occur together provided that the event that occurs is an enabled wakeup
 545          *  source and also generates an interrupt. If just the wakeup event occurs then
 546          *  the device will be in Active mode, but the CPU will remain halted waiting for
 547          *  an interrupt. If an interrupt occurs from something other than a wakeup
 548          *  source, then the CPU will restart with the device in Alternate Active mode
C51 COMPILER V9.51   CYPM                                                                  11/20/2019 09:16:33 PAGE 10  

 549          *  until a wakeup event occurs.
 550          *
 551          *  For example, if CyPmAltAct(PM_ALT_ACT_TIME_NONE, PM_ALT_ACT_SRC_PICU) is
 552          *  called and PICU interrupt occurs, the CPU will be started and device will be
 553          *  switched into Active mode. And if CyPmAltAct(PM_ALT_ACT_TIME_NONE,
 554          *  PM_ALT_ACT_SRC_NONE) is called and PICU interrupt occurs, the CPU will be
 555          *  started while device remains in Alternate Active mode.
 556          *
 557          *  \param wakeupTime: Specifies a timer wakeup source and the frequency of that
 558          *              source. For PSoC 5LP this parameter is ignored.
 559          *
 560          *           Define                      Time
 561          *  PM_ALT_ACT_TIME_NONE             None
 562          *  \param PM_ALT_ACT_TIME_ONE_PPS          One PPS: 1 second
 563          *  \param PM_ALT_ACT_TIME_CTW_2MS          CTW: 2 ms
 564          *  \param PM_ALT_ACT_TIME_CTW_4MS          CTW: 4 ms
 565          *  \param PM_ALT_ACT_TIME_CTW_8MS          CTW: 8 ms
 566          *  \param PM_ALT_ACT_TIME_CTW_16MS         CTW: 16 ms
 567          *  \param PM_ALT_ACT_TIME_CTW_32MS         CTW: 32 ms
 568          *  \param PM_ALT_ACT_TIME_CTW_64MS         CTW: 64 ms
 569          *  \param PM_ALT_ACT_TIME_CTW_128MS        CTW: 128 ms
 570          *  \param PM_ALT_ACT_TIME_CTW_256MS        CTW: 256 ms
 571          *  \param PM_ALT_ACT_TIME_CTW_512MS        CTW: 512 ms
 572          *  \param PM_ALT_ACT_TIME_CTW_1024MS       CTW: 1024 ms
 573          *  \param PM_ALT_ACT_TIME_CTW_2048MS       CTW: 2048 ms
 574          *  \param PM_ALT_ACT_TIME_CTW_4096MS       CTW: 4096 ms
 575          *  PM_ALT_ACT_TIME_FTW(1-256)*       FTW: 10us to 2.56 ms
 576          *
 577          *  \param *Note:   PM_ALT_ACT_TIME_FTW() is a macro that takes an argument that
 578          *           specifies how many increments of 10 us to delay.
 579                      For PSoC 3 silicon the valid range of  values is 1 to 256.
 580          *
 581          *  \param wakeUpSource:    Specifies a bitwise mask of wakeup sources. In addition, if
 582          *                   a wakeupTime has been specified, the associated timer will
 583          *                   be included as a wakeup source.
 584          *
 585          *           Define                      Source
 586          *  PM_ALT_ACT_SRC_NONE              None
 587          *  PM_ALT_ACT_SRC_COMPARATOR0       Comparator 0
 588          *  PM_ALT_ACT_SRC_COMPARATOR1       Comparator 1
 589          *  PM_ALT_ACT_SRC_COMPARATOR2       Comparator 2
 590          *  PM_ALT_ACT_SRC_COMPARATOR3       Comparator 3
 591          *  PM_ALT_ACT_SRC_INTERRUPT         Interrupt
 592          *  PM_ALT_ACT_SRC_PICU              PICU
 593          *  PM_ALT_ACT_SRC_I2C               I2C
 594          *  PM_ALT_ACT_SRC_BOOSTCONVERTER    Boost Converter
 595          *  PM_ALT_ACT_SRC_FTW               Fast Timewheel*
 596          *  PM_ALT_ACT_SRC_VD                High and Low Voltage Detection (HVI, LVI)*
 597          *  PM_ALT_ACT_SRC_CTW               Central Timewheel**
 598          *  PM_ALT_ACT_SRC_ONE_PPS           One PPS**
 599          *  PM_ALT_ACT_SRC_LCD               LCD
 600          *
 601          *  \param *Note : FTW and HVI/LVI wakeup signals are in the same mask bit.
 602          *  \param **Note: CTW and One PPS wakeup signals are in the same mask bit.
 603          *
 604          *  When specifying a Comparator as the wakeupSource, an instance specific define
 605          *  that will track with the specific comparator that the instance
 606          *  is placed into should be used. As an example, for a Comparator instance named
 607          *  \param MyComp the value to OR into the mask is: MyComp_ctComp__CMP_MASK.
 608          *
 609          *  When CTW, FTW or One PPS is used as a wakeup source, the CyPmReadStatus()
 610          *  function must be called upon wakeup with a corresponding parameter. Please
C51 COMPILER V9.51   CYPM                                                                  11/20/2019 09:16:33 PAGE 11  

 611          *  refer to the CyPmReadStatus() API in the System Reference Guide for more
 612          *  information.
 613          *
 614          * Reentrant:
 615          *  No
 616          *
 617          * \sideeffect
 618          *  If a wakeupTime other than NONE is specified, then upon exit the state of the
 619          *  specified timer will be left as specified by wakeupTime with the timer
 620          *  enabled and the interrupt disabled.  Also, the ILO 1 KHz (if CTW timer is
 621          *  used as wakeup time) or ILO 100 KHz (if the FTW timer is used as wakeup time)
 622          *  will be left started.
 623          *
 624          *******************************************************************************/
 625          void CyPmAltAct(uint16 wakeupTime, uint16 wakeupSource) 
 626          {
 627   1          #if(CY_PSOC5)
              
                      /* Arguments expected to be 0 */
                      CYASSERT(PM_ALT_ACT_TIME_NONE == wakeupTime);
              
                      if(0u != wakeupTime)
                      {
                          /* To remove unreferenced local variable warning */
                      }
              
                  #endif /* (CY_PSOC5) */
 638   1      
 639   1      
 640   1          #if(CY_PSOC3)
 641   1      
 642   1              /* FTW - save current and set new configuration */
 643   1              if((wakeupTime >= PM_ALT_ACT_TIME_FTW(1u)) && (wakeupTime <= PM_ALT_ACT_TIME_FTW(256u)))
 644   1              {
 645   2                  CyPmFtwSetInterval(PM_ALT_ACT_FTW_INTERVAL(wakeupTime));
 646   2      
 647   2                  /* Include associated timer to wakeupSource */
 648   2                  wakeupSource |= PM_ALT_ACT_SRC_FTW;
 649   2              }
 650   1      
 651   1              /* CTW - save current and set new configuration */
 652   1              if((wakeupTime >= PM_ALT_ACT_TIME_CTW_2MS) && (wakeupTime <= PM_ALT_ACT_TIME_CTW_4096MS))
 653   1              {
 654   2                  /* Save current CTW configuration and set new one */
 655   2                  CyPmCtwSetInterval((uint8)(wakeupTime - 1u));
 656   2      
 657   2                  /* Include associated timer to wakeupSource */
 658   2                  wakeupSource |= PM_ALT_ACT_SRC_CTW;
 659   2              }
 660   1      
 661   1              /* 1PPS - save current and set new configuration */
 662   1              if(PM_ALT_ACT_TIME_ONE_PPS == wakeupTime)
 663   1              {
 664   2                  /* Save current 1PPS configuration and set new one */
 665   2                  CyPmOppsSet();
 666   2      
 667   2                  /* Include associated timer to wakeupSource */
 668   2                  wakeupSource |= PM_ALT_ACT_SRC_ONE_PPS;
 669   2              }
 670   1      
 671   1          #endif /* (CY_PSOC3) */
 672   1      
C51 COMPILER V9.51   CYPM                                                                  11/20/2019 09:16:33 PAGE 12  

 673   1      
 674   1          /* Save and set new wake up configuration */
 675   1      
 676   1          /* Interrupt, PICU, I2C, Boost converter, CTW/1PPS */
 677   1          cyPmBackup.wakeupCfg0 = CY_PM_WAKEUP_CFG0_REG;
 678   1          CY_PM_WAKEUP_CFG0_REG = (uint8) (wakeupSource >> 4u);
 679   1      
 680   1          /* Comparators */
 681   1          cyPmBackup.wakeupCfg1 = CY_PM_WAKEUP_CFG1_REG;
 682   1          CY_PM_WAKEUP_CFG1_REG = (((uint8) wakeupSource) & CY_PM_WAKEUP_SRC_CMPS_MASK);
 683   1      
 684   1          /* LCD */
 685   1          cyPmBackup.wakeupCfg2 = CY_PM_WAKEUP_CFG2_REG;
 686   1          CY_PM_WAKEUP_CFG2_REG = ((uint8) ((wakeupSource >> 12u) & 0x01u));
 687   1      
 688   1      
 689   1          /* Switch to the Alternate Active mode */
 690   1          CY_PM_MODE_CSR_REG = ((CY_PM_MODE_CSR_REG & ((uint8)(~CY_PM_MODE_CSR_MASK))) | CY_PM_MODE_CSR_ALT_ACT)
             -;
 691   1      
 692   1          /* Recommended readback. */
 693   1          (void) CY_PM_MODE_CSR_REG;
 694   1      
 695   1          /* Two recommended NOPs to get into the mode. */
 696   1          CY_NOP;
 697   1          CY_NOP;
 698   1      
 699   1          /* Execute WFI instruction (for ARM-based devices only) */
 700   1          CY_PM_WFI;
 701   1      
 702   1          /* Point of return from Alternate Active Mode */
 703   1      
 704   1          /* Restore wake up configuration */
 705   1          CY_PM_WAKEUP_CFG0_REG = cyPmBackup.wakeupCfg0;
 706   1          CY_PM_WAKEUP_CFG1_REG = cyPmBackup.wakeupCfg1;
 707   1          CY_PM_WAKEUP_CFG2_REG = cyPmBackup.wakeupCfg2;
 708   1      }
 709          
 710          
 711          /*******************************************************************************
 712          * Function Name: CyPmSleep
 713          ****************************************************************************//**
 714          *
 715          *  Puts the part into the Sleep state.
 716          *
 717          *  Note Before calling this function, you must manually configure the power
 718          *  mode of the source clocks for the timer that is used as the wakeup timer.
 719          *
 720          *  Note Before calling this function, you must prepare clock tree configuration
 721          *  for the low power mode by calling CyPmSaveClocks(). And restore clock
 722          *  configuration after CyPmSleep() execution by calling CyPmRestoreClocks(). See
 723          *  Power Management section, Clock Configuration subsection of the System
 724          *  Reference Guide for more information.
 725          *
 726          *  PSoC 3:
 727          *  Before switching to Sleep, if a wakeupTime other than NONE is specified,
 728          *  then the appropriate timer state is configured as specified with the
 729          *  interrupt for that timer disabled.  The wakeup source will be a combination
 730          *  of the values specified in the wakeupSource and any timer specified in the
 731          *  wakeupTime argument.  Once the wakeup condition is satisfied, then all saved
 732          *  state is restored and the function returns in the Active state.
 733          *
C51 COMPILER V9.51   CYPM                                                                  11/20/2019 09:16:33 PAGE 13  

 734          *  Note that if the wakeupTime is made with a different value, the period before
 735          *  the wakeup occurs can be significantly shorter than the specified time.  If
 736          *  the next call is made with the same wakeupTime value, then the wakeup will
 737          *  occur the specified period after the previous wakeup occurred.
 738          *
 739          *  If a wakeupTime other than NONE is specified, then upon exit the state of the
 740          *  specified timer will be left as specified by wakeupTime with the timer
 741          *  enabled and the interrupt disabled.  If the CTW or One PPS is already
 742          *  configured for wakeup, for example with the SleepTimer or RTC components,
 743          *  then specify NONE for the wakeupTime and include the appropriate source for
 744          *  wakeupSource.
 745          *
 746          *  PSoC 5LP:
 747          *  The wakeupTime parameter is not used and the only NONE can be specified.
 748          *  The wakeup time must be configured with the component, SleepTimer for CTW
 749          *  intervals and RTC for 1PPS interval. The component must be configured to
 750          *  generate interrupt.
 751          *
 752          *  \param wakeupTime:      Specifies a timer wakeup source and the frequency of that
 753          *                   source. For PSoC 5LP, this parameter is ignored.
 754          *
 755          *           Define                      Time
 756          *  PM_SLEEP_TIME_NONE               None
 757          *  \param PM_SLEEP_TIME_ONE_PPS            One PPS: 1 second
 758          *  \param PM_SLEEP_TIME_CTW_2MS            CTW: 2 ms
 759          *  \param PM_SLEEP_TIME_CTW_4MS            CTW: 4 ms
 760          *  \param PM_SLEEP_TIME_CTW_8MS            CTW: 8 ms
 761          *  \param PM_SLEEP_TIME_CTW_16MS           CTW: 16 ms
 762          *  \param PM_SLEEP_TIME_CTW_32MS           CTW: 32 ms
 763          *  \param PM_SLEEP_TIME_CTW_64MS           CTW: 64 ms
 764          *  \param PM_SLEEP_TIME_CTW_128MS          CTW: 128 ms
 765          *  \param PM_SLEEP_TIME_CTW_256MS          CTW: 256 ms
 766          *  \param PM_SLEEP_TIME_CTW_512MS          CTW: 512 ms
 767          *  \param PM_SLEEP_TIME_CTW_1024MS         CTW: 1024 ms
 768          *  \param PM_SLEEP_TIME_CTW_2048MS         CTW: 2048 ms
 769          *  \param PM_SLEEP_TIME_CTW_4096MS         CTW: 4096 ms
 770          *
 771          *  \param wakeUpSource:    Specifies a bitwise mask of wakeup sources. In addition, if
 772          *                   a wakeupTime has been specified the associated timer will be
 773          *                   included as a wakeup source.
 774          *
 775          *           Define                      Source
 776          *  PM_SLEEP_SRC_NONE                None
 777          *  PM_SLEEP_SRC_COMPARATOR0         Comparator 0
 778          *  PM_SLEEP_SRC_COMPARATOR1         Comparator 1
 779          *  PM_SLEEP_SRC_COMPARATOR2         Comparator 2
 780          *  PM_SLEEP_SRC_COMPARATOR3         Comparator 3
 781          *  PM_SLEEP_SRC_PICU                PICU
 782          *  PM_SLEEP_SRC_I2C                 I2C
 783          *  PM_SLEEP_SRC_BOOSTCONVERTER      Boost Converter
 784          *  PM_SLEEP_SRC_VD                  High and Low Voltage Detection (HVI, LVI)
 785          *  PM_SLEEP_SRC_CTW                 Central Timewheel*
 786          *  PM_SLEEP_SRC_ONE_PPS             One PPS*
 787          *  PM_SLEEP_SRC_LCD                 LCD
 788          *
 789          *  \param *Note:   CTW and One PPS wakeup signals are in the same mask bit.
 790          *
 791          *  When specifying a Comparator as the wakeupSource an instance specific define
 792          *  should be used that will track with the specific comparator that the instance
 793          *  is placed into. As an example for a Comparator instance named MyComp the
 794          *  \param value to OR into the mask is: MyComp_ctComp__CMP_MASK.
 795          *
C51 COMPILER V9.51   CYPM                                                                  11/20/2019 09:16:33 PAGE 14  

 796          *  When CTW or One PPS is used as a wakeup source, the CyPmReadStatus()
 797          *  function must be called upon wakeup with corresponding parameter. Please
 798          *  refer to the CyPmReadStatus() API in the System Reference Guide for more
 799          *  information.
 800          *
 801          * Reentrant:
 802          *  No
 803          *
 804          * Side Effects and Restrictions:
 805          *  If a wakeupTime other than NONE is specified, then upon exit the state of the
 806          *  specified timer will be left as specified by wakeupTime with the timer
 807          *  enabled and the interrupt disabled. Also, the ILO 1 KHz (if CTW timer is
 808          *  used as wake up time) will be left started.
 809          *
 810          *  The 1 kHz ILO clock is expected to be enabled for PSoC 3 and PSoC 5LP to
 811          *  measure Hibernate/Sleep regulator settling time after a reset. The holdoff
 812          *  delay is measured using rising edges of the 1 kHz ILO.
 813          *
 814          *  For PSoC 3 silicon hardware buzz should be disabled before entering a sleep
 815          *  power mode. It is disabled by PSoC Creator during startup.
 816          *  If a Low Voltage Interrupt (LVI), High Voltage Interrupt (HVI) or Brown Out
 817          *  detect (power supply supervising capabilities) are required in a design
 818          *  during sleep, use the Central Time Wheel (CTW) to periodically wake the
 819          *  device, perform software buzz, and refresh the supervisory services. If LVI,
 820          *  HVI, or Brown Out is not required, then CTW is not required.
 821          *  Refer to the device errata for more information.
 822          *
 823          *******************************************************************************/
 824          void CyPmSleep(uint8 wakeupTime, uint16 wakeupSource) 
 825          {
 826   1          uint8 interruptState;
 827   1      
 828   1          /* Save current global interrupt enable and disable it */
 829   1          interruptState = CyEnterCriticalSection();
 830   1      
 831   1      
 832   1          /***********************************************************************
 833   1          * The Hibernate/Sleep regulator has a settling time after a reset.
 834   1          * During this time, the system ignores requests to enter Sleep and
 835   1          * Hibernate modes. The holdoff delay is measured using rising edges of
 836   1          * the 1 kHz ILO.
 837   1          ***********************************************************************/
 838   1          if(0u == (CY_PM_MODE_CSR_REG & CY_PM_MODE_CSR_PWRUP_PULSE_Q))
 839   1          {
 840   2              /* Disable hold off - no action on restore */
 841   2              CY_PM_PWRSYS_SLP_TR_REG &= CY_PM_PWRSYS_SLP_TR_HIBSLP_HOLDOFF_MASK;
 842   2          }
 843   1          else
 844   1          {
 845   2              /* Abort, device is not ready for low power mode entry */
 846   2      
 847   2              /* Restore global interrupt enable state */
 848   2              CyExitCriticalSection(interruptState);
 849   2      
 850   2              return;
 851   2          }
 852   1      
 853   1      
 854   1          /***********************************************************************
 855   1          * PSoC3 < TO6:
 856   1          * - Hardware buzz must be disabled before the sleep mode entry.
 857   1          * - Voltage supervision (HVI/LVI) requires hardware buzz, so they must
C51 COMPILER V9.51   CYPM                                                                  11/20/2019 09:16:33 PAGE 15  

 858   1          *   be also disabled.
 859   1          *
 860   1          * PSoC3 >= TO6:
 861   1          * - Voltage supervision (HVI/LVI) requires hardware buzz, so hardware
 862   1          *   buzz must be enabled before the sleep mode entry and restored on
 863   1          *   the wakeup.
 864   1          ***********************************************************************/
 865   1          #if(CY_PSOC3)
 866   1      
 867   1              /* Silicon Revision ID is below TO6 */
 868   1              if(CYDEV_CHIP_REV_ACTUAL < 5u)
 869   1              {
 870   2                  /* Hardware buzz expected to be disabled in Sleep mode */
 871   2                  CYASSERT(0u == (CY_PM_PWRSYS_WAKE_TR2_REG & CY_PM_PWRSYS_WAKE_TR2_EN_BUZZ));
 872   2              }
 873   1      
 874   1      
 875   1              if(0u != (CY_PM_RESET_CR1_REG & (CY_PM_RESET_CR1_HVIA_EN |
 876   1                  CY_PM_RESET_CR1_LVIA_EN | CY_PM_RESET_CR1_LVID_EN)))
 877   1              {
 878   2                  if(CYDEV_CHIP_REV_ACTUAL < 5u)
 879   2                  {
 880   3                      /* LVI/HVI requires hardware buzz to be enabled */
 881   3                      CYASSERT(0u != 0u);
 882   3                  }
 883   2                  else
 884   2                  {
 885   3                      if (0u == (CY_PM_PWRSYS_WAKE_TR2_REG & CY_PM_PWRSYS_WAKE_TR2_EN_BUZZ))
 886   3                      {
 887   4                          cyPmBackup.hardwareBuzz = CY_PM_DISABLED;
 888   4                          CY_PM_PWRSYS_WAKE_TR2_REG |= CY_PM_PWRSYS_WAKE_TR2_EN_BUZZ;
 889   4                      }
 890   3                      else
 891   3                      {
 892   4                          cyPmBackup.hardwareBuzz = CY_PM_ENABLED;
 893   4                      }
 894   3                  }
 895   2              }
 896   1      
 897   1          #endif /* (CY_PSOC3) */
 898   1      
 899   1      
 900   1          /*******************************************************************************
 901   1          * For ARM-based devices,interrupt is required for the CPU to wake up. The
 902   1          * Power Management implementation assumes that wakeup time is configured with a
 903   1          * separate component (component-based wakeup time configuration) for
 904   1          * interrupt to be issued on terminal count. For more information, refer to the
 905   1          * Wakeup Time Configuration section of System Reference Guide.
 906   1          *******************************************************************************/
 907   1          #if(CY_PSOC5)
              
                      /* Arguments expected to be 0 */
                      CYASSERT(PM_SLEEP_TIME_NONE == wakeupTime);
              
                      if(0u != wakeupTime)
                      {
                          /* To remove unreferenced local variable warning */
                      }
              
                  #endif /* (CY_PSOC5) */
 918   1      
 919   1      
C51 COMPILER V9.51   CYPM                                                                  11/20/2019 09:16:33 PAGE 16  

 920   1          CyPmHibSlpSaveSet();
 921   1      
 922   1      
 923   1          #if(CY_PSOC3)
 924   1      
 925   1              /* CTW - save current and set new configuration */
 926   1              if((wakeupTime >= PM_SLEEP_TIME_CTW_2MS) && (wakeupTime <= PM_SLEEP_TIME_CTW_4096MS))
 927   1              {
 928   2                  /* Save current and set new configuration of CTW */
 929   2                  CyPmCtwSetInterval((uint8)(wakeupTime - 1u));
 930   2      
 931   2                  /* Include associated timer to wakeupSource */
 932   2                  wakeupSource |= PM_SLEEP_SRC_CTW;
 933   2              }
 934   1      
 935   1              /* 1PPS - save current and set new configuration */
 936   1              if(PM_SLEEP_TIME_ONE_PPS == wakeupTime)
 937   1              {
 938   2                  /* Save current and set new configuration of the 1PPS */
 939   2                  CyPmOppsSet();
 940   2      
 941   2                  /* Include associated timer to wakeupSource */
 942   2                  wakeupSource |= PM_SLEEP_SRC_ONE_PPS;
 943   2              }
 944   1      
 945   1          #endif /* (CY_PSOC3) */
 946   1      
 947   1      
 948   1          /* Save and set new wake up configuration */
 949   1      
 950   1          /* Interrupt, PICU, I2C, Boost converter, CTW/1PPS */
 951   1          cyPmBackup.wakeupCfg0 = CY_PM_WAKEUP_CFG0_REG;
 952   1          CY_PM_WAKEUP_CFG0_REG = (uint8) (wakeupSource >> 4u);
 953   1      
 954   1          /* Comparators */
 955   1          cyPmBackup.wakeupCfg1 = CY_PM_WAKEUP_CFG1_REG;
 956   1          CY_PM_WAKEUP_CFG1_REG = (((uint8) wakeupSource) & CY_PM_WAKEUP_SRC_CMPS_MASK);
 957   1      
 958   1          /* LCD */
 959   1          cyPmBackup.wakeupCfg2 = CY_PM_WAKEUP_CFG2_REG;
 960   1          CY_PM_WAKEUP_CFG2_REG = ((uint8) ((wakeupSource >> 12u) & 0x01u));
 961   1      
 962   1      
 963   1          /*******************************************************************
 964   1          * Do not use the merge region below unless any component datasheet
 965   1          * suggests doing so.
 966   1          *******************************************************************/
 967   1          /* `#START CY_PM_JUST_BEFORE_SLEEP` */
 968   1      
 969   1          /* `#END` */
 970   1      
 971   1          #ifdef CY_BOOT_CY_PM_SLEEP_BEFORE_SLEEP_CALLBACK
                      CyBoot_CyPmSleep_BeforeSleep_Callback();
                  #endif /* CY_BOOT_CY_PM_SLEEP_BEFORE_SLEEP_CALLBACK */
 974   1      
 975   1          /* Last moment IMO frequency change */
 976   1          if(0u == (CY_PM_FASTCLK_IMO_CR_REG & CY_PM_FASTCLK_IMO_CR_FREQ_MASK))
 977   1          {
 978   2              /* IMO frequency is 12 MHz */
 979   2              cyPmBackup.imoActFreq12Mhz = CY_PM_ENABLED;
 980   2          }
 981   1          else
C51 COMPILER V9.51   CYPM                                                                  11/20/2019 09:16:33 PAGE 17  

 982   1          {
 983   2              /* IMO frequency is not 12 MHz */
 984   2              cyPmBackup.imoActFreq12Mhz = CY_PM_DISABLED;
 985   2      
 986   2              /* Save IMO frequency */
 987   2              cyPmBackup.imoActFreq = CY_PM_FASTCLK_IMO_CR_REG & CY_PM_FASTCLK_IMO_CR_FREQ_MASK;
 988   2      
 989   2              /* Set IMO frequency to 12 MHz */
 990   2              CY_PM_FASTCLK_IMO_CR_REG &= ((uint8) (~CY_PM_FASTCLK_IMO_CR_FREQ_MASK));
 991   2          }
 992   1      
 993   1          /* Switch to Sleep mode */
 994   1          CY_PM_MODE_CSR_REG = ((CY_PM_MODE_CSR_REG & ((uint8)(~CY_PM_MODE_CSR_MASK))) | CY_PM_MODE_CSR_SLEEP);
 995   1      
 996   1          /* Recommended readback. */
 997   1          (void) CY_PM_MODE_CSR_REG;
 998   1      
 999   1          /* Two recommended NOPs to get into mode. */
1000   1          CY_NOP;
1001   1          CY_NOP;
1002   1      
1003   1          /* Execute WFI instruction (for ARM-based devices only) */
1004   1          CY_PM_WFI;
1005   1      
1006   1          /* Point of return from Sleep Mode */
1007   1      
1008   1          /* Restore last moment IMO frequency change */
1009   1          if(CY_PM_ENABLED != cyPmBackup.imoActFreq12Mhz)
1010   1          {
1011   2              CY_PM_FASTCLK_IMO_CR_REG  = (CY_PM_FASTCLK_IMO_CR_REG & ((uint8)(~CY_PM_FASTCLK_IMO_CR_FREQ_MASK))
             -) |
1012   2                                          cyPmBackup.imoActFreq;
1013   2          }
1014   1      
1015   1      
1016   1          /*******************************************************************
1017   1          * Do not use merge region below unless any component datasheet
1018   1          * suggest to do so.
1019   1          *******************************************************************/
1020   1          /* `#START CY_PM_JUST_AFTER_WAKEUP_FROM_SLEEP` */
1021   1      
1022   1          /* `#END` */
1023   1      
1024   1          #ifdef CY_BOOT_CY_PM_SLEEP_AFTER_SLEEP_CALLBACK
                      CyBoot_CyPmSleep_AfterSleep_Callback();
                  #endif /* CY_BOOT_CY_PM_SLEEP_AFTER_SLEEP_CALLBACK */
1027   1      
1028   1          /* Restore hardware configuration */
1029   1          CyPmHibSlpRestore();
1030   1      
1031   1      
1032   1          /* Disable hardware buzz, if it was previously enabled */
1033   1          #if(CY_PSOC3)
1034   1      
1035   1              if(0u != (CY_PM_RESET_CR1_REG & (CY_PM_RESET_CR1_HVIA_EN |
1036   1                  CY_PM_RESET_CR1_LVIA_EN | CY_PM_RESET_CR1_LVID_EN)))
1037   1              {
1038   2                  if(CYDEV_CHIP_REV_ACTUAL >= 5u)
1039   2                  {
1040   3                      if (CY_PM_DISABLED == cyPmBackup.hardwareBuzz)
1041   3                      {
1042   4                          CY_PM_PWRSYS_WAKE_TR2_REG &= (uint8)(~CY_PM_PWRSYS_WAKE_TR2_EN_BUZZ);
C51 COMPILER V9.51   CYPM                                                                  11/20/2019 09:16:33 PAGE 18  

1043   4                      }
1044   3                  }
1045   2              }
1046   1      
1047   1          #endif /* (CY_PSOC3) */
1048   1      
1049   1      
1050   1          /* Restore current wake up configuration */
1051   1          CY_PM_WAKEUP_CFG0_REG = cyPmBackup.wakeupCfg0;
1052   1          CY_PM_WAKEUP_CFG1_REG = cyPmBackup.wakeupCfg1;
1053   1          CY_PM_WAKEUP_CFG2_REG = cyPmBackup.wakeupCfg2;
1054   1      
1055   1          /* Restore global interrupt enable state */
1056   1          CyExitCriticalSection(interruptState);
1057   1      }
1058          
1059          
1060          /*******************************************************************************
1061          * Function Name: CyPmHibernate
1062          ****************************************************************************//**
1063          *
1064          *  Puts the part into the Hibernate state.
1065          *
1066          *  Before switching to Hibernate, the current status of the PICU wakeup source
1067          *  bit is saved and then set. This configures the device to wake up from the
1068          *  PICU. Make sure you have at least one pin configured to generate PICU
1069          *  interrupt. For pin Px.y, the register "PICU_INTTYPE_PICUx_INTTYPEy" controls
1070          *  the PICU behavior. In the TRM, this register is "PICU[0..15]_INTTYPE[0..7]."
1071          *  In the Pins component datasheet, this register is referred to as the IRQ
1072          *  option. Once the wakeup occurs, the PICU wakeup source bit is restored and
1073          *  the PSoC returns to the Active state.
1074          *
1075          * Reentrant:
1076          *  No
1077          *
1078          * \sideeffect
1079          *  Applications must wait 20 us before re-entering hibernate or sleep after
1080          *  waking up from hibernate. The 20 us allows the sleep regulator time to
1081          *  stabilize before the next hibernate / sleep event occurs. The 20 us
1082          *  requirement begins when the device wakes up. There is no hardware check that
1083          *  this requirement is met. The specified delay should be done on ISR entry.
1084          *
1085          *  After the wakeup PICU interrupt occurs, the Pin_ClearInterrupt() (where Pin
1086          *  is instance name of the Pins component) function must be called to clear the
1087          *  latched pin events to allow the proper Hibernate mode entry and to enable
1088          *  detection of future events.
1089          *
1090          *  The 1 kHz ILO clock is expected to be enabled for PSoC 3 and PSoC 5LP to
1091          *  measure Hibernate/Sleep regulator settling time after a reset. The holdoff
1092          *  delay is measured using the rising edges of the 1 kHz ILO.
1093          *
1094          *******************************************************************************/
1095          void CyPmHibernate(void) 
1096          {
1097   1          CyPmHibernateEx(CY_PM_HIB_SRC_PICU);
1098   1      }
1099          
1100          
1101          /*******************************************************************************
1102          * Function Name: CyPmHibernateEx
1103          ****************************************************************************//**
1104          *
C51 COMPILER V9.51   CYPM                                                                  11/20/2019 09:16:33 PAGE 19  

1105          *  Puts the part into the Hibernate state.
1106          *
1107          *  The following wake up sources can be configured: PICU interrupt, Comparator0,
1108          *  Comparator1, Comparator2, and Comparator3 output.
1109          *
1110          *  Before switching to Hibernate, the current status of the PICU wakeup source
1111          *  bit is saved and then set.
1112          *
1113          *  If using PICU as the wake up source, make sure you have at least one pin
1114          *  configured to generate a PICU interrupt. For pin Px.y, the register
1115          *  "PICU_INTTYPE_PICUx_INTTYPEy" controls  the PICU behavior. In the TRM, this
1116          *  register is "PICU[0..15]_INTTYPE[0..7]." In the Pins component datasheet,
1117          *  this register is referred to as the IRQ option. Once the wakeup occurs, the
1118          *  PICU wakeup source bit is restored and the PSoC returns to the Active state.
1119          *
1120          *  If using a comparator as the wake up source, make sure you call this function
1121          *  with the 'wakeupSource' parameter set to the appropriate comparator. The part
1122          *  is configured for the requested wakeup source by setting the corresponding
1123          *  bits in PM_WAKEUP_CFG1 register.
1124          *
1125          *  Function call CyPmHibernateEx(CY_PM_HIB_SRC_PICU) will act in the same way as
1126          *  CyPmHibernate().
1127          *
1128          *  \param wakeupSource:
1129          *           Parameter Value             Description
1130          *       CY_PM_HIB_SRC_PICU          PICU interrupt is set as the wake up source.
1131          *       CY_PM_HIB_SRC_COMPARATOR0   Comparator 0 is set as the wake up source.
1132          *       CY_PM_HIB_SRC_COMPARATOR1   Comparator 1 is set as the wake up source.
1133          *       CY_PM_HIB_SRC_COMPARATOR2   Comparator 2 is set as the wake up source.
1134          *       CY_PM_HIB_SRC_COMPARATOR3   Comparator 3 is set as the wake up source.
1135          *
1136          * Reentrant:
1137          *  No
1138          *
1139          * \sideeffect
1140          *  Applications must wait 20 us before re-entering hibernate or sleep after
1141          *  waking up from hibernate. The 20 us allows the sleep regulator time to
1142          *  stabilize before the next hibernate / sleep event occurs. The 20 us
1143          *  requirement begins when the device wakes up. There is no hardware check that
1144          *  this requirement is met. The specified delay should be done on ISR entry.
1145          *
1146          *  After the wakeup PICU interrupt occurs, the Pin_ClearInterrupt() (where Pin
1147          *  is instance name of the Pins component) function must be called to clear the
1148          *  latched pin events to allow the proper Hibernate mode entry and to enable
1149          *  detection of future events.
1150          *
1151          *  The 1 kHz ILO clock is expected to be enabled for PSoC 3 and PSoC 5LP to
1152          *  measure Hibernate/Sleep regulator settling time after a reset. The holdoff
1153          *  delay is measured using the rising edges of the 1 kHz ILO.
1154          *
1155          *******************************************************************************/
1156          void CyPmHibernateEx(uint16 wakeupSource) 
1157          {
1158   1          uint8 interruptState;
1159   1      
1160   1          /* Save current global interrupt enable and disable it */
1161   1          interruptState = CyEnterCriticalSection();
1162   1      
1163   1              /***********************************************************************
1164   1              * The Hibernate/Sleep regulator has a settling time after a reset.
1165   1              * During this time, the system ignores requests to enter the Sleep and
1166   1              * Hibernate modes. The holdoff delay is measured using the rising edges of
C51 COMPILER V9.51   CYPM                                                                  11/20/2019 09:16:33 PAGE 20  

1167   1              * the 1 kHz ILO.
1168   1              ***********************************************************************/
1169   1              if(0u == (CY_PM_MODE_CSR_REG & CY_PM_MODE_CSR_PWRUP_PULSE_Q))
1170   1              {
1171   2                  /* Disable hold off - no action on restore */
1172   2                  CY_PM_PWRSYS_SLP_TR_REG &= CY_PM_PWRSYS_SLP_TR_HIBSLP_HOLDOFF_MASK;
1173   2              }
1174   1              else
1175   1              {
1176   2                  /* Abort, device is not ready for low power mode entry */
1177   2      
1178   2                  /* Restore global interrupt enable state */
1179   2                  CyExitCriticalSection(interruptState);
1180   2      
1181   2                  return;
1182   2              }
1183   1      
1184   1          CyPmHibSaveSet();
1185   1      
1186   1      
1187   1          /* Save and set new wake up configuration */
1188   1      
1189   1          /* Save and enable only wakeup on PICU */
1190   1          cyPmBackup.wakeupCfg0 = CY_PM_WAKEUP_CFG0_REG;
1191   1          CY_PM_WAKEUP_CFG0_REG = ((uint8) (wakeupSource >> 4u) & CY_PM_WAKEUP_PICU);
1192   1      
1193   1          /* Comparators */
1194   1          cyPmBackup.wakeupCfg1 = CY_PM_WAKEUP_CFG1_REG;
1195   1          CY_PM_WAKEUP_CFG1_REG = (((uint8) wakeupSource) & CY_PM_WAKEUP_SRC_CMPS_MASK);
1196   1      
1197   1          cyPmBackup.wakeupCfg2 = CY_PM_WAKEUP_CFG2_REG;
1198   1          CY_PM_WAKEUP_CFG2_REG = 0x00u;
1199   1      
1200   1      
1201   1          /* Last moment IMO frequency change */
1202   1          if(0u == (CY_PM_FASTCLK_IMO_CR_REG & CY_PM_FASTCLK_IMO_CR_FREQ_MASK))
1203   1          {
1204   2              /* IMO frequency is 12 MHz */
1205   2              cyPmBackup.imoActFreq12Mhz = CY_PM_ENABLED;
1206   2          }
1207   1          else
1208   1          {
1209   2              /* IMO frequency is not 12 MHz */
1210   2              cyPmBackup.imoActFreq12Mhz = CY_PM_DISABLED;
1211   2      
1212   2              /* Save IMO frequency */
1213   2              cyPmBackup.imoActFreq = CY_PM_FASTCLK_IMO_CR_REG & CY_PM_FASTCLK_IMO_CR_FREQ_MASK;
1214   2      
1215   2              /* Set IMO frequency to 12 MHz */
1216   2              CY_PM_FASTCLK_IMO_CR_REG &= ((uint8) (~CY_PM_FASTCLK_IMO_CR_FREQ_MASK));
1217   2          }
1218   1      
1219   1      
1220   1          /* Switch to Hibernate Mode */
1221   1          CY_PM_MODE_CSR_REG = (CY_PM_MODE_CSR_REG & ((uint8) (~CY_PM_MODE_CSR_MASK))) | CY_PM_MODE_CSR_HIBERNAT
             -E;
1222   1      
1223   1          /* Recommended readback. */
1224   1          (void) CY_PM_MODE_CSR_REG;
1225   1      
1226   1          /* Two recommended NOPs to get into mode. */
1227   1          CY_NOP;
C51 COMPILER V9.51   CYPM                                                                  11/20/2019 09:16:33 PAGE 21  

1228   1          CY_NOP;
1229   1      
1230   1          /* Execute WFI instruction (for ARM-based devices only) */
1231   1          CY_PM_WFI;
1232   1      
1233   1      
1234   1          /* Point of return from Hibernate mode */
1235   1      
1236   1      
1237   1          /* Restore last moment IMO frequency change */
1238   1          if(CY_PM_ENABLED != cyPmBackup.imoActFreq12Mhz)
1239   1          {
1240   2              CY_PM_FASTCLK_IMO_CR_REG  = (CY_PM_FASTCLK_IMO_CR_REG & ((uint8)(~CY_PM_FASTCLK_IMO_CR_FREQ_MASK))
             -) |
1241   2                                          cyPmBackup.imoActFreq;
1242   2          }
1243   1      
1244   1      
1245   1          /* Restore device for proper Hibernate mode exit*/
1246   1          CyPmHibRestore();
1247   1      
1248   1          /* Restore current wake up configuration */
1249   1          CY_PM_WAKEUP_CFG0_REG = cyPmBackup.wakeupCfg0;
1250   1          CY_PM_WAKEUP_CFG1_REG = cyPmBackup.wakeupCfg1;
1251   1          CY_PM_WAKEUP_CFG2_REG = cyPmBackup.wakeupCfg2;
1252   1      
1253   1          /* Restore global interrupt enable state */
1254   1          CyExitCriticalSection(interruptState);
1255   1      }
1256          
1257          
1258          /*******************************************************************************
1259          * Function Name: CyPmReadStatus
1260          ****************************************************************************//**
1261          *
1262          *  Manages the Power Manager Interrupt Status Register.  This register has the
1263          *  interrupt status for the one pulse per second, central timewheel and fast
1264          *  timewheel timers.  This hardware register clears on read.  To allow for only
1265          *  clearing the bits of interest and preserving the other bits, this function
1266          *  uses a shadow register that retains the state.  This function reads the
1267          *  status register and ORs that value with the shadow register.  That is the
1268          *  value that is returned.  Then the bits in the mask that are set are cleared
1269          *  from this value and written back to the shadow register.
1270          *
1271          *  Note You must call this function within 1 ms (1 clock cycle of the ILO)
1272          *  after a CTW event has occurred.
1273          *
1274          *  \param mask: Bits in the shadow register to clear.
1275          *
1276          *       Define                      Source
1277          *  CY_PM_FTW_INT                Fast Timewheel
1278          *  CY_PM_CTW_INT                Central Timewheel
1279          *  CY_PM_ONEPPS_INT             One Pulse Per Second
1280          *
1281          * \return
1282          *  Status.  Same bits values as the mask parameter.
1283          *
1284          *******************************************************************************/
1285          uint8 CyPmReadStatus(uint8 mask) 
1286          {
1287   1          static uint8 interruptStatus;
1288   1          uint8 interruptState;
C51 COMPILER V9.51   CYPM                                                                  11/20/2019 09:16:33 PAGE 22  

1289   1          uint8 tmpStatus;
1290   1      
1291   1          /* Enter critical section */
1292   1          interruptState = CyEnterCriticalSection();
1293   1      
1294   1          /* Save value of register, copy it and clear desired bit */
1295   1          interruptStatus |= CY_PM_INT_SR_REG;
1296   1          tmpStatus = interruptStatus & (CY_PM_FTW_INT | CY_PM_CTW_INT | CY_PM_ONEPPS_INT);
1297   1          interruptStatus &= ((uint8)(~mask));
1298   1      
1299   1          /* Exit critical section */
1300   1          CyExitCriticalSection(interruptState);
1301   1      
1302   1          return(tmpStatus);
1303   1      }
1304          
1305          
1306          /*******************************************************************************
1307          * Function Name: CyPmHibSaveSet
1308          ****************************************************************************//**
1309          *
1310          *  Prepare device for proper Hibernate low power mode entry:
1311          *  - Disables I2C backup regulator
1312          *  - Saves ILO power down mode state and enable it
1313          *  - Saves state of 1 kHz and 100 kHz ILO and disable them
1314          *  - Disables sleep regulator and shorts vccd to vpwrsleep
1315          *  - Save LVI/HVI configuration and disable them - CyPmHviLviSaveDisable()
1316          *  - CyPmHibSlpSaveSet() function is called
1317          *
1318          * Reentrant:
1319          *  No
1320          *
1321          *******************************************************************************/
1322          static void CyPmHibSaveSet(void) 
1323          {
1324   1          /* I2C backup reg must be off when the sleep regulator is unavailable */
1325   1          if(0u != (CY_PM_PWRSYS_CR1_REG & CY_PM_PWRSYS_CR1_I2CREG_BACKUP))
1326   1          {
1327   2              /***********************************************************************
1328   2              * If the I2C backup regulator is enabled, all the fixed-function registers
1329   2              * store their values while the device is in the low power mode, otherwise their
1330   2              * configuration is lost. The I2C API makes a decision to restore or not
1331   2              * to restore I2C registers based on this. If this regulator will be
1332   2              * disabled and then enabled, I2C API will suppose that the I2C block
1333   2              * registers preserved their values, while this is not true. So, the
1334   2              * backup regulator is disabled. The I2C sleep APIs is responsible for
1335   2              * restoration.
1336   2              ***********************************************************************/
1337   2      
1338   2              /* Disable I2C backup register */
1339   2              CY_PM_PWRSYS_CR1_REG &= ((uint8)(~CY_PM_PWRSYS_CR1_I2CREG_BACKUP));
1340   2          }
1341   1      
1342   1      
1343   1          /* Save current ILO power mode and ensure low power mode */
1344   1          cyPmBackup.iloPowerMode = CyILO_SetPowerMode(CY_PM_POWERDOWN_MODE);
1345   1      
1346   1          /* Save current 1kHz ILO enable state. Disabled automatically. */
1347   1          cyPmBackup.ilo1kEnable = (0u == (CY_PM_SLOWCLK_ILO_CR0_REG & CY_PM_ILO_CR0_EN_1K)) ?
1348   1                                      CY_PM_DISABLED : CY_PM_ENABLED;
1349   1      
1350   1          /* Save current 100kHz ILO enable state. Disabled automatically. */
C51 COMPILER V9.51   CYPM                                                                  11/20/2019 09:16:33 PAGE 23  

1351   1          cyPmBackup.ilo100kEnable = (0u == (CY_PM_SLOWCLK_ILO_CR0_REG & CY_PM_ILO_CR0_EN_100K)) ?
1352   1                                      CY_PM_DISABLED : CY_PM_ENABLED;
1353   1      
1354   1      
1355   1          /* Disable the sleep regulator and shorts vccd to vpwrsleep */
1356   1          if(0u == (CY_PM_PWRSYS_SLP_TR_REG & CY_PM_PWRSYS_SLP_TR_BYPASS))
1357   1          {
1358   2              /* Save current bypass state */
1359   2              cyPmBackup.slpTrBypass = CY_PM_DISABLED;
1360   2              CY_PM_PWRSYS_SLP_TR_REG |= CY_PM_PWRSYS_SLP_TR_BYPASS;
1361   2          }
1362   1          else
1363   1          {
1364   2              cyPmBackup.slpTrBypass = CY_PM_ENABLED;
1365   2          }
1366   1      
1367   1          /* LPCOMPs are always enabled (even when BOTH ext_vccd=1 and ext_vcca=1)*/
1368   1      
1369   1      
1370   1          /***************************************************************************
1371   1          * LVI/HVI must be disabled in Hibernate
1372   1          ***************************************************************************/
1373   1      
1374   1          /* Save LVI/HVI configuration and disable them */
1375   1          CyPmHviLviSaveDisable();
1376   1      
1377   1      
1378   1          /* Make the same preparations for Hibernate and Sleep modes */
1379   1          CyPmHibSlpSaveSet();
1380   1      
1381   1      
1382   1          /***************************************************************************
1383   1          * Save and set the power mode wakeup trim registers
1384   1          ***************************************************************************/
1385   1          cyPmBackup.wakeupTrim0 = CY_PM_PWRSYS_WAKE_TR0_REG;
1386   1          cyPmBackup.wakeupTrim1 = CY_PM_PWRSYS_WAKE_TR1_REG;
1387   1          
1388   1          #if(CY_PSOC5)
                      cyPmBackup.wakeupTrim3 = CY_PM_PWRSYS_WAKE_TR3_REG;
                  #endif  /* (CY_PSOC5) */    
1391   1      
1392   1          CY_PM_PWRSYS_WAKE_TR0_REG = CY_PM_PWRSYS_WAKE_TR0;
1393   1          CY_PM_PWRSYS_WAKE_TR1_REG = CY_PM_PWRSYS_WAKE_TR1;
1394   1          
1395   1          #if(CY_PSOC5)
                      CY_PM_PWRSYS_WAKE_TR3_REG = CY_PM_PWRSYS_WAKE_TR3;
                  #endif  /* (CY_PSOC5) */    
1398   1      }
1399          
1400          
1401          /*******************************************************************************
1402          * Function Name: CyPmHibRestore
1403          ****************************************************************************//**
1404          *
1405          *  Restores the device for the proper Hibernate mode exit:
1406          *  - Restores LVI/HVI configuration - calsl CyPmHviLviRestore()
1407          *  - CyPmHibSlpSaveRestore() function is called
1408          *  - Restores ILO power down mode state and enables it
1409          *  - Restores the state of 1 kHz and 100 kHz ILO and disables them
1410          *  - Restores the sleep regulator settings
1411          *
1412          *******************************************************************************/
C51 COMPILER V9.51   CYPM                                                                  11/20/2019 09:16:33 PAGE 24  

1413          static void CyPmHibRestore(void) 
1414          {
1415   1          /* Restore LVI/HVI configuration */
1416   1          CyPmHviLviRestore();
1417   1      
1418   1          /* Restore the same configuration for Hibernate and Sleep modes */
1419   1          CyPmHibSlpRestore();
1420   1      
1421   1          /* Restore 1kHz ILO enable state */
1422   1          if(CY_PM_ENABLED == cyPmBackup.ilo1kEnable)
1423   1          {
1424   2              /* Enable 1kHz ILO */
1425   2              CyILO_Start1K();
1426   2          }
1427   1      
1428   1          /* Restore 100kHz ILO enable state */
1429   1          if(CY_PM_ENABLED == cyPmBackup.ilo100kEnable)
1430   1          {
1431   2              /* Enable 100kHz ILO */
1432   2              CyILO_Start100K();
1433   2          }
1434   1      
1435   1          /* Restore ILO power mode */
1436   1          (void) CyILO_SetPowerMode(cyPmBackup.iloPowerMode);
1437   1      
1438   1      
1439   1          if(CY_PM_DISABLED == cyPmBackup.slpTrBypass)
1440   1          {
1441   2              /* Enable the sleep regulator */
1442   2              CY_PM_PWRSYS_SLP_TR_REG &= ((uint8)(~CY_PM_PWRSYS_SLP_TR_BYPASS));
1443   2          }
1444   1      
1445   1      
1446   1          /***************************************************************************
1447   1          * Restore the power mode wakeup trim registers
1448   1          ***************************************************************************/
1449   1          CY_PM_PWRSYS_WAKE_TR0_REG = cyPmBackup.wakeupTrim0;
1450   1          CY_PM_PWRSYS_WAKE_TR1_REG = cyPmBackup.wakeupTrim1;
1451   1      
1452   1          #if(CY_PSOC5)
                      CY_PM_PWRSYS_WAKE_TR3_REG = cyPmBackup.wakeupTrim3;
                  #endif  /* (CY_PSOC5) */    
1455   1      }
1456          
1457          
1458          /*******************************************************************************
1459          * Function Name: CyPmCtwSetInterval
1460          ****************************************************************************//**
1461          *
1462          *  Performs the CTW configuration:
1463          *  - Disables the CTW interrupt
1464          *  - Enables 1 kHz ILO
1465          *  - Sets a new CTW interval
1466          *
1467          *  \param ctwInterval: the CTW interval to be set.
1468          *
1469          * \sideeffect
1470          *  Enables ILO 1 KHz clock and leaves it enabled.
1471          *
1472          *******************************************************************************/
1473          void CyPmCtwSetInterval(uint8 ctwInterval) 
1474          {
C51 COMPILER V9.51   CYPM                                                                  11/20/2019 09:16:33 PAGE 25  

1475   1          /* Disable CTW interrupt enable */
1476   1          CY_PM_TW_CFG2_REG &= ((uint8)(~CY_PM_CTW_IE));
1477   1      
1478   1          /* Enable 1kHz ILO (required for CTW operation) */
1479   1          CyILO_Start1K();
1480   1      
1481   1          /* Interval could be set only while CTW is disabled */
1482   1          if(0u != (CY_PM_TW_CFG2_REG & CY_PM_CTW_EN))
1483   1          {
1484   2              /* Set CTW interval if needed */
1485   2              if(CY_PM_TW_CFG1_REG != ctwInterval)
1486   2              {
1487   3                  /* Disable the CTW, set new CTW interval and enable it again */
1488   3                  CY_PM_TW_CFG2_REG &= ((uint8)(~CY_PM_CTW_EN));
1489   3                  CY_PM_TW_CFG1_REG = ctwInterval;
1490   3                  CY_PM_TW_CFG2_REG |= CY_PM_CTW_EN;
1491   3              }   /* Required interval is already set */
1492   2          }
1493   1          else
1494   1          {
1495   2              /* Set CTW interval if needed */
1496   2              if(CY_PM_TW_CFG1_REG != ctwInterval)
1497   2              {
1498   3                  /* Set new CTW interval. Could be changed if CTW is disabled */
1499   3                  CY_PM_TW_CFG1_REG = ctwInterval;
1500   3              }   /* Required interval is already set */
1501   2      
1502   2              /* Enable CTW */
1503   2              CY_PM_TW_CFG2_REG |= CY_PM_CTW_EN;
1504   2          }
1505   1      }
1506          
1507          
1508          /*******************************************************************************
1509          * Function Name: CyPmOppsSet
1510          ****************************************************************************//**
1511          *
1512          *  Performs 1PPS configuration:
1513          *  - Starts 32 KHz XTAL
1514          *  - Disables 1PPS interrupts
1515          *  - Enables 1PPS
1516          *
1517          *******************************************************************************/
1518          void CyPmOppsSet(void) 
1519          {
1520   1          /* Enable 32kHz XTAL if needed */
1521   1          if(0u == (CY_PM_SLOWCLK_X32_CR_REG & CY_PM_X32_CR_X32EN))
1522   1          {
1523   2              /* Enable 32kHz XTAL */
1524   2              CyXTAL_32KHZ_Start();
1525   2          }
1526   1      
1527   1          /* Disable 1PPS interrupt enable */
1528   1          CY_PM_TW_CFG2_REG &= ((uint8)(~CY_PM_1PPS_IE));
1529   1      
1530   1          /* Enable 1PPS operation */
1531   1          CY_PM_TW_CFG2_REG |= CY_PM_1PPS_EN;
1532   1      }
1533          
1534          
1535          /*******************************************************************************
1536          * Function Name: CyPmFtwSetInterval
C51 COMPILER V9.51   CYPM                                                                  11/20/2019 09:16:33 PAGE 26  

1537          ****************************************************************************//**
1538          *
1539          *  Performs the FTW configuration:
1540          *  - Disables the FTW interrupt
1541          *  - Enables 100 kHz ILO
1542          *  - Sets a new FTW interval.
1543          *
1544          *  \param ftwInterval The FTW counter interval.
1545          *
1546          * \sideeffect
1547          *  Enables the ILO 100 KHz clock and leaves it enabled.
1548          *
1549          *******************************************************************************/
1550          void CyPmFtwSetInterval(uint8 ftwInterval) 
1551          {
1552   1          /* Disable FTW interrupt enable */
1553   1          CY_PM_TW_CFG2_REG &= ((uint8)(~CY_PM_FTW_IE));
1554   1      
1555   1          /* Enable 100kHz ILO */
1556   1          CyILO_Start100K();
1557   1      
1558   1          /* Interval could be set only while FTW is disabled */
1559   1          if(0u != (CY_PM_TW_CFG2_REG & CY_PM_FTW_EN))
1560   1          {
1561   2              /* Disable FTW, set new FTW interval if needed and enable it again */
1562   2              if(CY_PM_TW_CFG0_REG != ftwInterval)
1563   2              {
1564   3                  /* Disable CTW, set new CTW interval and enable it again */
1565   3                  CY_PM_TW_CFG2_REG &= ((uint8)(~CY_PM_FTW_EN));
1566   3                  CY_PM_TW_CFG0_REG = ftwInterval;
1567   3                  CY_PM_TW_CFG2_REG |= CY_PM_FTW_EN;
1568   3              }   /* Required interval is already set */
1569   2          }
1570   1          else
1571   1          {
1572   2              /* Set new FTW counter interval if needed. FTW is disabled. */
1573   2              if(CY_PM_TW_CFG0_REG != ftwInterval)
1574   2              {
1575   3                  /* Set new CTW interval. Could be changed if CTW is disabled */
1576   3                  CY_PM_TW_CFG0_REG = ftwInterval;
1577   3              }   /* Required interval is already set */
1578   2      
1579   2              /* Enable FTW */
1580   2              CY_PM_TW_CFG2_REG |= CY_PM_FTW_EN;
1581   2          }
1582   1      }
1583          
1584          
1585          /*******************************************************************************
1586          * Function Name: CyPmHibSlpSaveSet
1587          ****************************************************************************//**
1588          *
1589          *  This API is used for preparing the device for the Sleep and Hibernate low
1590          *  power modes entry:
1591          *  - Saves the COMP, VIDAC, DSM, and SAR routing connections (PSoC 5)
1592          *  - Saves the SC/CT routing connections (PSoC 3/5/5LP)
1593          *  - Disables the Serial Wire Viewer (SWV) (PSoC 3)
1594          *  - Saves the boost reference selection and sets it to internal
1595          *
1596          * Reentrant:
1597          *  No
1598          *
C51 COMPILER V9.51   CYPM                                                                  11/20/2019 09:16:33 PAGE 27  

1599          *******************************************************************************/
1600          static void CyPmHibSlpSaveSet(void) 
1601          {
1602   1          /* Save SC/CT routing registers */
1603   1          cyPmBackup.scctData[0u]   = CY_GET_REG8(CYREG_SC0_SW0 );
1604   1          cyPmBackup.scctData[1u]   = CY_GET_REG8(CYREG_SC0_SW2 );
1605   1          cyPmBackup.scctData[2u]   = CY_GET_REG8(CYREG_SC0_SW3 );
1606   1          cyPmBackup.scctData[3u]   = CY_GET_REG8(CYREG_SC0_SW4 );
1607   1          cyPmBackup.scctData[4u]   = CY_GET_REG8(CYREG_SC0_SW6 );
1608   1          cyPmBackup.scctData[5u]   = CY_GET_REG8(CYREG_SC0_SW8 );
1609   1          cyPmBackup.scctData[6u]   = CY_GET_REG8(CYREG_SC0_SW10);
1610   1      
1611   1          cyPmBackup.scctData[7u]   = CY_GET_REG8(CYREG_SC1_SW0 );
1612   1          cyPmBackup.scctData[8u]   = CY_GET_REG8(CYREG_SC1_SW2 );
1613   1          cyPmBackup.scctData[9u]   = CY_GET_REG8(CYREG_SC1_SW3 );
1614   1          cyPmBackup.scctData[10u]  = CY_GET_REG8(CYREG_SC1_SW4 );
1615   1          cyPmBackup.scctData[11u]  = CY_GET_REG8(CYREG_SC1_SW6 );
1616   1          cyPmBackup.scctData[12u]  = CY_GET_REG8(CYREG_SC1_SW8 );
1617   1          cyPmBackup.scctData[13u]  = CY_GET_REG8(CYREG_SC1_SW10);
1618   1      
1619   1          cyPmBackup.scctData[14u]  = CY_GET_REG8(CYREG_SC2_SW0 );
1620   1          cyPmBackup.scctData[15u]  = CY_GET_REG8(CYREG_SC2_SW2 );
1621   1          cyPmBackup.scctData[16u]  = CY_GET_REG8(CYREG_SC2_SW3 );
1622   1          cyPmBackup.scctData[17u]  = CY_GET_REG8(CYREG_SC2_SW4 );
1623   1          cyPmBackup.scctData[18u]  = CY_GET_REG8(CYREG_SC2_SW6 );
1624   1          cyPmBackup.scctData[19u]  = CY_GET_REG8(CYREG_SC2_SW8 );
1625   1          cyPmBackup.scctData[20u]  = CY_GET_REG8(CYREG_SC2_SW10);
1626   1      
1627   1          cyPmBackup.scctData[21u]  = CY_GET_REG8(CYREG_SC3_SW0 );
1628   1          cyPmBackup.scctData[22u]  = CY_GET_REG8(CYREG_SC3_SW2 );
1629   1          cyPmBackup.scctData[23u]  = CY_GET_REG8(CYREG_SC3_SW3 );
1630   1          cyPmBackup.scctData[24u]  = CY_GET_REG8(CYREG_SC3_SW4 );
1631   1          cyPmBackup.scctData[25u]  = CY_GET_REG8(CYREG_SC3_SW6 );
1632   1          cyPmBackup.scctData[26u]  = CY_GET_REG8(CYREG_SC3_SW8 );
1633   1          cyPmBackup.scctData[27u]  = CY_GET_REG8(CYREG_SC3_SW10);
1634   1      
1635   1          CY_SET_REG8(CYREG_SC0_SW0 , 0u);
1636   1          CY_SET_REG8(CYREG_SC0_SW2 , 0u);
1637   1          CY_SET_REG8(CYREG_SC0_SW3 , 0u);
1638   1          CY_SET_REG8(CYREG_SC0_SW4 , 0u);
1639   1          CY_SET_REG8(CYREG_SC0_SW6 , 0u);
1640   1          CY_SET_REG8(CYREG_SC0_SW8 , 0u);
1641   1          CY_SET_REG8(CYREG_SC0_SW10, 0u);
1642   1      
1643   1          CY_SET_REG8(CYREG_SC1_SW0 , 0u);
1644   1          CY_SET_REG8(CYREG_SC1_SW2 , 0u);
1645   1          CY_SET_REG8(CYREG_SC1_SW3 , 0u);
1646   1          CY_SET_REG8(CYREG_SC1_SW4 , 0u);
1647   1          CY_SET_REG8(CYREG_SC1_SW6 , 0u);
1648   1          CY_SET_REG8(CYREG_SC1_SW8 , 0u);
1649   1          CY_SET_REG8(CYREG_SC1_SW10, 0u);
1650   1      
1651   1          CY_SET_REG8(CYREG_SC2_SW0 , 0u);
1652   1          CY_SET_REG8(CYREG_SC2_SW2 , 0u);
1653   1          CY_SET_REG8(CYREG_SC2_SW3 , 0u);
1654   1          CY_SET_REG8(CYREG_SC2_SW4 , 0u);
1655   1          CY_SET_REG8(CYREG_SC2_SW6 , 0u);
1656   1          CY_SET_REG8(CYREG_SC2_SW8 , 0u);
1657   1          CY_SET_REG8(CYREG_SC2_SW10, 0u);
1658   1      
1659   1          CY_SET_REG8(CYREG_SC3_SW0 , 0u);
1660   1          CY_SET_REG8(CYREG_SC3_SW2 , 0u);
C51 COMPILER V9.51   CYPM                                                                  11/20/2019 09:16:33 PAGE 28  

1661   1          CY_SET_REG8(CYREG_SC3_SW3 , 0u);
1662   1          CY_SET_REG8(CYREG_SC3_SW4 , 0u);
1663   1          CY_SET_REG8(CYREG_SC3_SW6 , 0u);
1664   1          CY_SET_REG8(CYREG_SC3_SW8 , 0u);
1665   1          CY_SET_REG8(CYREG_SC3_SW10, 0u);
1666   1      
1667   1      
1668   1          #if(CY_PSOC3)
1669   1      
1670   1              /* Serial Wire Viewer (SWV) workaround */
1671   1      
1672   1              /* Disable SWV before entering low power mode */
1673   1              if(0u != (CY_PM_MLOGIC_DBG_REG & CY_PM_MLOGIC_DBG_SWV_CLK_EN))
1674   1              {
1675   2                  /* Save SWV clock enabled state */
1676   2                  cyPmBackup.swvClkEnabled = CY_PM_ENABLED;
1677   2      
1678   2                  /* Save current ports drive mode settings */
1679   2                  cyPmBackup.prt1Dm = CY_PM_PRT1_PC3_REG & ((uint8)(~CY_PM_PRT1_PC3_DM_MASK));
1680   2      
1681   2                  /* Set drive mode to strong output */
1682   2                  CY_PM_PRT1_PC3_REG = (CY_PM_PRT1_PC3_REG & CY_PM_PRT1_PC3_DM_MASK) |
1683   2                                      CY_PM_PRT1_PC3_DM_STRONG;
1684   2      
1685   2                  /* Disable SWV clocks */
1686   2                  CY_PM_MLOGIC_DBG_REG &= ((uint8)(~CY_PM_MLOGIC_DBG_SWV_CLK_EN));
1687   2              }
1688   1              else
1689   1              {
1690   2                  /* Save SWV clock disabled state */
1691   2                  cyPmBackup.swvClkEnabled = CY_PM_DISABLED;
1692   2              }
1693   1      
1694   1          #endif  /* (CY_PSOC3) */
1695   1      
1696   1      
1697   1          /***************************************************************************
1698   1          * Save boost reference and set it to boost's internal by clearing the bit.
1699   1          * External (chip bandgap) reference is not available in Sleep and Hibernate.
1700   1          ***************************************************************************/
1701   1          if(0u != (CY_PM_BOOST_CR2_REG & CY_PM_BOOST_CR2_EREFSEL_EXT))
1702   1          {
1703   2              cyPmBackup.boostRefExt = CY_PM_ENABLED;
1704   2              CY_PM_BOOST_CR2_REG &= ((uint8)(~CY_PM_BOOST_CR2_EREFSEL_EXT));
1705   2          }
1706   1          else
1707   1          {
1708   2              cyPmBackup.boostRefExt = CY_PM_DISABLED;
1709   2          }
1710   1      }
1711          
1712          
1713          /*******************************************************************************
1714          * Function Name: CyPmHibSlpRestore
1715          ****************************************************************************//**
1716          *
1717          *  This API is used for restoring the device configurations after wakeup from
1718          *  the Sleep and Hibernate low power modes:
1719          *  - Restores the SC/CT routing connections
1720          *  - Restores the enable state of the Serial Wire Viewer (SWV) (PSoC 3)
1721          *  - Restores the  boost reference selection
1722          *
C51 COMPILER V9.51   CYPM                                                                  11/20/2019 09:16:33 PAGE 29  

1723          *******************************************************************************/
1724          static void CyPmHibSlpRestore(void) 
1725          {
1726   1          /* Restore SC/CT routing registers */
1727   1          CY_SET_REG8(CYREG_SC0_SW0 , cyPmBackup.scctData[0u] );
1728   1          CY_SET_REG8(CYREG_SC0_SW2 , cyPmBackup.scctData[1u] );
1729   1          CY_SET_REG8(CYREG_SC0_SW3 , cyPmBackup.scctData[2u] );
1730   1          CY_SET_REG8(CYREG_SC0_SW4 , cyPmBackup.scctData[3u] );
1731   1          CY_SET_REG8(CYREG_SC0_SW6 , cyPmBackup.scctData[4u] );
1732   1          CY_SET_REG8(CYREG_SC0_SW8 , cyPmBackup.scctData[5u] );
1733   1          CY_SET_REG8(CYREG_SC0_SW10, cyPmBackup.scctData[6u] );
1734   1      
1735   1          CY_SET_REG8(CYREG_SC1_SW0 , cyPmBackup.scctData[7u] );
1736   1          CY_SET_REG8(CYREG_SC1_SW2 , cyPmBackup.scctData[8u] );
1737   1          CY_SET_REG8(CYREG_SC1_SW3 , cyPmBackup.scctData[9u] );
1738   1          CY_SET_REG8(CYREG_SC1_SW4 , cyPmBackup.scctData[10u]);
1739   1          CY_SET_REG8(CYREG_SC1_SW6 , cyPmBackup.scctData[11u]);
1740   1          CY_SET_REG8(CYREG_SC1_SW8 , cyPmBackup.scctData[12u]);
1741   1          CY_SET_REG8(CYREG_SC1_SW10, cyPmBackup.scctData[13u]);
1742   1      
1743   1          CY_SET_REG8(CYREG_SC2_SW0 , cyPmBackup.scctData[14u]);
1744   1          CY_SET_REG8(CYREG_SC2_SW2 , cyPmBackup.scctData[15u]);
1745   1          CY_SET_REG8(CYREG_SC2_SW3 , cyPmBackup.scctData[16u]);
1746   1          CY_SET_REG8(CYREG_SC2_SW4 , cyPmBackup.scctData[17u]);
1747   1          CY_SET_REG8(CYREG_SC2_SW6 , cyPmBackup.scctData[18u]);
1748   1          CY_SET_REG8(CYREG_SC2_SW8 , cyPmBackup.scctData[19u]);
1749   1          CY_SET_REG8(CYREG_SC2_SW10, cyPmBackup.scctData[20u]);
1750   1      
1751   1          CY_SET_REG8(CYREG_SC3_SW0 , cyPmBackup.scctData[21u]);
1752   1          CY_SET_REG8(CYREG_SC3_SW2 , cyPmBackup.scctData[22u]);
1753   1          CY_SET_REG8(CYREG_SC3_SW3 , cyPmBackup.scctData[23u]);
1754   1          CY_SET_REG8(CYREG_SC3_SW4 , cyPmBackup.scctData[24u]);
1755   1          CY_SET_REG8(CYREG_SC3_SW6 , cyPmBackup.scctData[25u]);
1756   1          CY_SET_REG8(CYREG_SC3_SW8 , cyPmBackup.scctData[26u]);
1757   1          CY_SET_REG8(CYREG_SC3_SW10, cyPmBackup.scctData[27u]);
1758   1      
1759   1      
1760   1          #if(CY_PSOC3)
1761   1      
1762   1              /* Serial Wire Viewer (SWV) workaround */
1763   1              if(CY_PM_ENABLED == cyPmBackup.swvClkEnabled)
1764   1              {
1765   2                  /* Restore ports drive mode */
1766   2                  CY_PM_PRT1_PC3_REG = (CY_PM_PRT1_PC3_REG & CY_PM_PRT1_PC3_DM_MASK) |
1767   2                                          cyPmBackup.prt1Dm;
1768   2      
1769   2                  /* Enable SWV clocks */
1770   2                  CY_PM_MLOGIC_DBG_REG |= CY_PM_MLOGIC_DBG_SWV_CLK_EN;
1771   2              }
1772   1      
1773   1          #endif /* (CY_PSOC3) */
1774   1      
1775   1      
1776   1          /* Restore boost reference */
1777   1          if(CY_PM_ENABLED == cyPmBackup.boostRefExt)
1778   1          {
1779   2              CY_PM_BOOST_CR2_REG |= CY_PM_BOOST_CR2_EREFSEL_EXT;
1780   2          }
1781   1      }
1782          
1783          
1784          /*******************************************************************************
C51 COMPILER V9.51   CYPM                                                                  11/20/2019 09:16:33 PAGE 30  

1785          * Function Name: CyPmHviLviSaveDisable
1786          ****************************************************************************//**
1787          *
1788          *  Saves analog and digital LVI and HVI configuration and disables them.
1789          *
1790          * Reentrant:
1791          *  No
1792          *
1793          *******************************************************************************/
1794          static void CyPmHviLviSaveDisable(void) 
1795          {
1796   1          if(0u != (CY_VD_LVI_HVI_CONTROL_REG & CY_VD_LVID_EN))
1797   1          {
1798   2              cyPmBackup.lvidEn = CY_PM_ENABLED;
1799   2              cyPmBackup.lvidTrip = CY_VD_LVI_TRIP_REG & CY_VD_LVI_TRIP_LVID_MASK;
1800   2      
1801   2              /* Save state of reset device at specified Vddd threshold */
1802   2              cyPmBackup.lvidRst = (0u == (CY_VD_PRES_CONTROL_REG & CY_VD_PRESD_EN)) ? \
1803   2                                   CY_PM_DISABLED : CY_PM_ENABLED;
1804   2      
1805   2              CyVdLvDigitDisable();
1806   2          }
1807   1          else
1808   1          {
1809   2              cyPmBackup.lvidEn = CY_PM_DISABLED;
1810   2          }
1811   1      
1812   1          if(0u != (CY_VD_LVI_HVI_CONTROL_REG & CY_VD_LVIA_EN))
1813   1          {
1814   2              cyPmBackup.lviaEn = CY_PM_ENABLED;
1815   2              cyPmBackup.lviaTrip = CY_VD_LVI_TRIP_REG >> 4u;
1816   2      
1817   2              /* Save state of reset device at specified Vdda threshold */
1818   2              cyPmBackup.lviaRst = (0u == (CY_VD_PRES_CONTROL_REG & CY_VD_PRESA_EN)) ? \
1819   2                                   CY_PM_DISABLED : CY_PM_ENABLED;
1820   2      
1821   2              CyVdLvAnalogDisable();
1822   2          }
1823   1          else
1824   1          {
1825   2              cyPmBackup.lviaEn = CY_PM_DISABLED;
1826   2          }
1827   1      
1828   1          if(0u != (CY_VD_LVI_HVI_CONTROL_REG & CY_VD_HVIA_EN))
1829   1          {
1830   2              cyPmBackup.hviaEn = CY_PM_ENABLED;
1831   2              CyVdHvAnalogDisable();
1832   2          }
1833   1          else
1834   1          {
1835   2              cyPmBackup.hviaEn = CY_PM_DISABLED;
1836   2          }
1837   1      }
1838          
1839          
1840          /*******************************************************************************
1841          * Function Name: CyPmHviLviRestore
1842          ****************************************************************************//**
1843          *
1844          *  Restores the analog and digital LVI and HVI configuration.
1845          *
1846          * Reentrant:
C51 COMPILER V9.51   CYPM                                                                  11/20/2019 09:16:33 PAGE 31  

1847          *  No
1848          *
1849          *******************************************************************************/
1850          static void CyPmHviLviRestore(void) 
1851          {
1852   1          /* Restore LVI/HVI configuration */
1853   1          if(CY_PM_ENABLED == cyPmBackup.lvidEn)
1854   1          {
1855   2              CyVdLvDigitEnable(cyPmBackup.lvidRst, cyPmBackup.lvidTrip);
1856   2          }
1857   1      
1858   1          if(CY_PM_ENABLED == cyPmBackup.lviaEn)
1859   1          {
1860   2              CyVdLvAnalogEnable(cyPmBackup.lviaRst, cyPmBackup.lviaTrip);
1861   2          }
1862   1      
1863   1          if(CY_PM_ENABLED == cyPmBackup.hviaEn)
1864   1          {
1865   2              CyVdHvAnalogEnable();
1866   2          }
1867   1      }
1868          
1869          
1870          /* [] END OF FILE */
C51 COMPILER V9.51   CYPM                                                                  11/20/2019 09:16:33 PAGE 32  

ASSEMBLY LISTING OF GENERATED OBJECT CODE


             ; FUNCTION CyPmSaveClocks (BEGIN)
                                           ; SOURCE LINE # 73
                                           ; SOURCE LINE # 74
                                           ; SOURCE LINE # 76
0000 9043A1            MOV     DPTR,#043A1H
0003 E0                MOVX    A,@DPTR
0004 FF                MOV     R7,A
0005 EF                MOV     A,R7
0006 540F              ANL     A,#0FH
0008 FF                MOV     R7,A
0009 900000      R     MOV     DPTR,#cyPmClockBackup
000C EF                MOV     A,R7
000D F0                MOVX    @DPTR,A
                                           ; SOURCE LINE # 77
000E 9043A2            MOV     DPTR,#043A2H
0011 E0                MOVX    A,@DPTR
0012 FF                MOV     R7,A
0013 900000      R     MOV     DPTR,#cyPmClockBackup+01H
0016 EF                MOV     A,R7
0017 F0                MOVX    @DPTR,A
                                           ; SOURCE LINE # 78
0018 9043A1            MOV     DPTR,#043A1H
001B E0                MOVX    A,@DPTR
001C FF                MOV     R7,A
001D EF                MOV     A,R7
001E 54F0              ANL     A,#0F0H
0020 FF                MOV     R7,A
0021 EF                MOV     A,R7
0022 F0                MOVX    @DPTR,A
                                           ; SOURCE LINE # 79
0023 9043A2            MOV     DPTR,#043A2H
0026 E0                MOVX    A,@DPTR
0027 FF                MOV     R7,A
0028 EF                MOV     A,R7
0029 5400              ANL     A,#00H
002B FF                MOV     R7,A
002C EF                MOV     A,R7
002D F0                MOVX    @DPTR,A
                                           ; SOURCE LINE # 82
002E 904800            MOV     DPTR,#04800H
0031 E0                MOVX    A,@DPTR
0032 FF                MOV     R7,A
0033 EF                MOV     A,R7
0034 54C0              ANL     A,#0C0H
0036 FF                MOV     R7,A
0037 900000      R     MOV     DPTR,#cyPmClockBackup+05H
003A EF                MOV     A,R7
003B F0                MOVX    @DPTR,A
                                           ; SOURCE LINE # 83
003C 7F2D              MOV     R7,#02DH
003E 120000      E     LCALL   _CyFlash_SetWaitCycles
                                           ; SOURCE LINE # 86
0041 904200            MOV     DPTR,#04200H
0044 E0                MOVX    A,@DPTR
0045 FF                MOV     R7,A
0046 EF                MOV     A,R7
0047 5407              ANL     A,#07H
0049 FF                MOV     R7,A
004A 900000      R     MOV     DPTR,#cyPmClockBackup+03H
C51 COMPILER V9.51   CYPM                                                                  11/20/2019 09:16:33 PAGE 33  

004D EF                MOV     A,R7
004E F0                MOVX    @DPTR,A
                                           ; SOURCE LINE # 87
004F 904200            MOV     DPTR,#04200H
0052 E0                MOVX    A,@DPTR
0053 FF                MOV     R7,A
0054 EF                MOV     A,R7
0055 5440              ANL     A,#040H
0057 FF                MOV     R7,A
0058 900000      R     MOV     DPTR,#cyPmClockBackup+04H
005B EF                MOV     A,R7
005C F0                MOVX    @DPTR,A
                                           ; SOURCE LINE # 90
005D 904200            MOV     DPTR,#04200H
0060 E0                MOVX    A,@DPTR
0061 FF                MOV     R7,A
0062 EF                MOV     A,R7
0063 5410              ANL     A,#010H
0065 FF                MOV     R7,A
0066 7E00              MOV     R6,#00H
0068 EF                MOV     A,R7
0069 4E                ORL     A,R6
006A 6008              JZ      ?C0001
                                           ; SOURCE LINE # 91
                                           ; SOURCE LINE # 93
006C 900000      R     MOV     DPTR,#cyPmClockBackup+09H
006F 7401              MOV     A,#01H
0071 F0                MOVX    @DPTR,A
                                           ; SOURCE LINE # 94
0072 8005              SJMP    ?C0002
0074         ?C0001:
                                           ; SOURCE LINE # 96
                                           ; SOURCE LINE # 98
0074 900000      R     MOV     DPTR,#cyPmClockBackup+09H
0077 E4                CLR     A
0078 F0                MOVX    @DPTR,A
                                           ; SOURCE LINE # 99
0079         ?C0002:
                                           ; SOURCE LINE # 102
0079 904005            MOV     DPTR,#04005H
007C E0                MOVX    A,@DPTR
007D FF                MOV     R7,A
007E EF                MOV     A,R7
007F 5403              ANL     A,#03H
0081 FF                MOV     R7,A
0082 900000      R     MOV     DPTR,#cyPmClockBackup+02H
0085 EF                MOV     A,R7
0086 F0                MOVX    @DPTR,A
                                           ; SOURCE LINE # 105
0087 900000      R     MOV     DPTR,#cyPmClockBackup+02H
008A E0                MOVX    A,@DPTR
008B FF                MOV     R7,A
008C EF                MOV     A,R7
008D 6401              XRL     A,#01H
008F 7034              JNZ     ?C0003
                                           ; SOURCE LINE # 106
                                           ; SOURCE LINE # 107
0091 904000            MOV     DPTR,#04000H
0094 E0                MOVX    A,@DPTR
0095 FF                MOV     R7,A
0096 EF                MOV     A,R7
0097 5403              ANL     A,#03H
C51 COMPILER V9.51   CYPM                                                                  11/20/2019 09:16:33 PAGE 34  

0099 FF                MOV     R7,A
009A EF                MOV     A,R7
009B 120000      E     LCALL   ?C?CCASE
009E 0000        R     DW      ?C0005
00A0 00                DB      00H
00A1 0000        R     DW      ?C0006
00A3 01                DB      01H
00A4 0000        R     DW      ?C0007
00A6 02                DB      02H
00A7 0000              DW      00H
00A9 0000        R     DW      ?C0008
                                           ; SOURCE LINE # 108
                                           ; SOURCE LINE # 109
00AB         ?C0005:
                                           ; SOURCE LINE # 110
00AB 7F00              MOV     R7,#00H
00AD 120000      E     LCALL   _CyMasterClk_SetSource
                                           ; SOURCE LINE # 111
00B0 8013              SJMP    ?C0003
                                           ; SOURCE LINE # 113
00B2         ?C0006:
                                           ; SOURCE LINE # 114
00B2 7F02              MOV     R7,#02H
00B4 120000      E     LCALL   _CyMasterClk_SetSource
                                           ; SOURCE LINE # 115
00B7 800C              SJMP    ?C0003
                                           ; SOURCE LINE # 117
00B9         ?C0007:
                                           ; SOURCE LINE # 118
00B9 7F03              MOV     R7,#03H
00BB 120000      E     LCALL   _CyMasterClk_SetSource
                                           ; SOURCE LINE # 119
00BE 8005              SJMP    ?C0003
                                           ; SOURCE LINE # 121
00C0         ?C0008:
                                           ; SOURCE LINE # 122
00C0 7F00              MOV     R7,#00H
00C2 120000      E     LCALL   _?CyHalt
                                           ; SOURCE LINE # 123
                                           ; SOURCE LINE # 124
                                           ; SOURCE LINE # 125
00C5         ?C0003:
                                           ; SOURCE LINE # 128
00C5 904220            MOV     DPTR,#04220H
00C8 E0                MOVX    A,@DPTR
00C9 FF                MOV     R7,A
00CA EF                MOV     A,R7
00CB 5401              ANL     A,#01H
00CD FF                MOV     R7,A
00CE 7E00              MOV     R6,#00H
00D0 EF                MOV     A,R7
00D1 4E                ORL     A,R6
00D2 600B              JZ      ?C0010
                                           ; SOURCE LINE # 129
                                           ; SOURCE LINE # 131
00D4 900000      R     MOV     DPTR,#cyPmClockBackup+0DH
00D7 7401              MOV     A,#01H
00D9 F0                MOVX    @DPTR,A
                                           ; SOURCE LINE # 132
00DA 120000      E     LCALL   CyPLL_OUT_Stop
                                           ; SOURCE LINE # 133
00DD 8005              SJMP    ?C0011
C51 COMPILER V9.51   CYPM                                                                  11/20/2019 09:16:33 PAGE 35  

00DF         ?C0010:
                                           ; SOURCE LINE # 135
                                           ; SOURCE LINE # 137
00DF 900000      R     MOV     DPTR,#cyPmClockBackup+0DH
00E2 E4                CLR     A
00E3 F0                MOVX    @DPTR,A
                                           ; SOURCE LINE # 138
00E4         ?C0011:
                                           ; SOURCE LINE # 141
00E4 7F04              MOV     R7,#04H
00E6 120000      E     LCALL   _CyIMO_SetFreq
                                           ; SOURCE LINE # 144
00E9 9043A0            MOV     DPTR,#043A0H
00EC E0                MOVX    A,@DPTR
00ED FF                MOV     R7,A
00EE EF                MOV     A,R7
00EF 5410              ANL     A,#010H
00F1 FF                MOV     R7,A
00F2 7E00              MOV     R6,#00H
00F4 EF                MOV     A,R7
00F5 4E                ORL     A,R6
00F6 6008              JZ      ?C0012
                                           ; SOURCE LINE # 145
                                           ; SOURCE LINE # 147
00F8 900000      R     MOV     DPTR,#cyPmClockBackup+06H
00FB 7401              MOV     A,#01H
00FD F0                MOVX    @DPTR,A
                                           ; SOURCE LINE # 148
00FE 8011              SJMP    ?C0013
0100         ?C0012:
                                           ; SOURCE LINE # 150
                                           ; SOURCE LINE # 152
0100 900000      R     MOV     DPTR,#cyPmClockBackup+06H
0103 E4                CLR     A
0104 F0                MOVX    @DPTR,A
                                           ; SOURCE LINE # 155
0105 7F00              MOV     R7,#00H
0107 120000      E     LCALL   _CyIMO_Start
                                           ; SOURCE LINE # 158
010A 7F06              MOV     R7,#06H
010C 7E00              MOV     R6,#00H
010E 120000      E     LCALL   _CyDelayUs
                                           ; SOURCE LINE # 159
0111         ?C0013:
                                           ; SOURCE LINE # 162
0111 904200            MOV     DPTR,#04200H
0114 E0                MOVX    A,@DPTR
0115 FF                MOV     R7,A
0116 EF                MOV     A,R7
0117 5420              ANL     A,#020H
0119 FF                MOV     R7,A
011A 7E00              MOV     R6,#00H
011C EF                MOV     A,R7
011D 4E                ORL     A,R6
011E 6021              JZ      ?C0014
                                           ; SOURCE LINE # 163
                                           ; SOURCE LINE # 166
0120 904000            MOV     DPTR,#04000H
0123 E0                MOVX    A,@DPTR
0124 FF                MOV     R7,A
0125 EF                MOV     A,R7
0126 5440              ANL     A,#040H
C51 COMPILER V9.51   CYPM                                                                  11/20/2019 09:16:33 PAGE 36  

0128 FF                MOV     R7,A
0129 7E00              MOV     R6,#00H
012B EF                MOV     A,R7
012C 4E                ORL     A,R6
012D 7004              JNZ     ?C0015
012F 7F02              MOV     R7,#02H
0131 8002              SJMP    ?C0016
0133         ?C0015:
0133 7F01              MOV     R7,#01H
0135         ?C0016:
0135 900000      R     MOV     DPTR,#cyPmClockBackup+07H
0138 EF                MOV     A,R7
0139 F0                MOVX    @DPTR,A
                                           ; SOURCE LINE # 169
013A 7F00              MOV     R7,#00H
013C 120000      E     LCALL   _CyIMO_SetSource
                                           ; SOURCE LINE # 170
013F 8005              SJMP    ?C0017
0141         ?C0014:
                                           ; SOURCE LINE # 172
                                           ; SOURCE LINE # 174
0141 900000      R     MOV     DPTR,#cyPmClockBackup+07H
0144 E4                CLR     A
0145 F0                MOVX    @DPTR,A
                                           ; SOURCE LINE # 175
0146         ?C0017:
                                           ; SOURCE LINE # 178
0146 904000            MOV     DPTR,#04000H
0149 E0                MOVX    A,@DPTR
014A FF                MOV     R7,A
014B EF                MOV     A,R7
014C 5430              ANL     A,#030H
014E FF                MOV     R7,A
014F 900000      R     MOV     DPTR,#cyPmClockBackup+08H
0152 EF                MOV     A,R7
0153 F0                MOVX    @DPTR,A
                                           ; SOURCE LINE # 181
0154 900000      R     MOV     DPTR,#cyPmClockBackup+08H
0157 E0                MOVX    A,@DPTR
0158 FF                MOV     R7,A
0159 EF                MOV     A,R7
015A 600B              JZ      ?C0018
                                           ; SOURCE LINE # 182
                                           ; SOURCE LINE # 184
015C 904000            MOV     DPTR,#04000H
015F E0                MOVX    A,@DPTR
0160 FF                MOV     R7,A
0161 EF                MOV     A,R7
0162 54CF              ANL     A,#0CFH
0164 FF                MOV     R7,A
0165 EF                MOV     A,R7
0166 F0                MOVX    @DPTR,A
                                           ; SOURCE LINE # 186
0167         ?C0018:
                                           ; SOURCE LINE # 189
0167 904200            MOV     DPTR,#04200H
016A E0                MOVX    A,@DPTR
016B FF                MOV     R7,A
016C EF                MOV     A,R7
016D 5410              ANL     A,#010H
016F FF                MOV     R7,A
0170 7E00              MOV     R6,#00H
C51 COMPILER V9.51   CYPM                                                                  11/20/2019 09:16:33 PAGE 37  

0172 EF                MOV     A,R7
0173 4E                ORL     A,R6
0174 6003              JZ      ?C0019
                                           ; SOURCE LINE # 190
                                           ; SOURCE LINE # 191
0176 120000      E     LCALL   CyIMO_DisableDoubler
                                           ; SOURCE LINE # 192
0179         ?C0019:
                                           ; SOURCE LINE # 195
0179 904004            MOV     DPTR,#04004H
017C E0                MOVX    A,@DPTR
017D FF                MOV     R7,A
017E 900000      R     MOV     DPTR,#cyPmClockBackup+0AH
0181 EF                MOV     A,R7
0182 F0                MOVX    @DPTR,A
                                           ; SOURCE LINE # 196
0183 900000      R     MOV     DPTR,#cyPmClockBackup+0AH
0186 E0                MOVX    A,@DPTR
0187 FF                MOV     R7,A
0188 EF                MOV     A,R7
0189 6005              JZ      ?C0020
                                           ; SOURCE LINE # 197
                                           ; SOURCE LINE # 198
018B 7F00              MOV     R7,#00H
018D 120000      E     LCALL   _CyMasterClk_SetDivider
                                           ; SOURCE LINE # 199
0190         ?C0020:
                                           ; SOURCE LINE # 202
0190 900000      R     MOV     DPTR,#cyPmClockBackup+02H
0193 E0                MOVX    A,@DPTR
0194 FF                MOV     R7,A
0195 EF                MOV     A,R7
0196 6005              JZ      ?C0021
                                           ; SOURCE LINE # 203
                                           ; SOURCE LINE # 204
0198 7F00              MOV     R7,#00H
019A 120000      E     LCALL   _CyMasterClk_SetSource
                                           ; SOURCE LINE # 205
019D         ?C0021:
                                           ; SOURCE LINE # 208
019D 904007            MOV     DPTR,#04007H
01A0 E0                MOVX    A,@DPTR
01A1 FF                MOV     R7,A
01A2 7E00              MOV     R6,#00H
01A4 EF                MOV     A,R7
01A5 7F00              MOV     R7,#00H
01A7 FE                MOV     R6,A
01A8 900000      R     MOV     DPTR,#cyPmClockBackup+0BH
01AB EE                MOV     A,R6
01AC F0                MOVX    @DPTR,A
01AD A3                INC     DPTR
01AE EF                MOV     A,R7
01AF F0                MOVX    @DPTR,A
                                           ; SOURCE LINE # 209
01B0 900000      R     MOV     DPTR,#cyPmClockBackup+0BH
01B3 E0                MOVX    A,@DPTR
01B4 FE                MOV     R6,A
01B5 A3                INC     DPTR
01B6 E0                MOVX    A,@DPTR
01B7 FF                MOV     R7,A
01B8 904006            MOV     DPTR,#04006H
01BB E0                MOVX    A,@DPTR
C51 COMPILER V9.51   CYPM                                                                  11/20/2019 09:16:33 PAGE 38  

01BC FD                MOV     R5,A
01BD 7C00              MOV     R4,#00H
01BF EE                MOV     A,R6
01C0 4C                ORL     A,R4
01C1 FE                MOV     R6,A
01C2 EF                MOV     A,R7
01C3 4D                ORL     A,R5
01C4 FF                MOV     R7,A
01C5 900000      R     MOV     DPTR,#cyPmClockBackup+0BH
01C8 EE                MOV     A,R6
01C9 F0                MOVX    @DPTR,A
01CA A3                INC     DPTR
01CB EF                MOV     A,R7
01CC F0                MOVX    @DPTR,A
                                           ; SOURCE LINE # 210
01CD 900000      R     MOV     DPTR,#cyPmClockBackup+0BH
01D0 E0                MOVX    A,@DPTR
01D1 FE                MOV     R6,A
01D2 A3                INC     DPTR
01D3 E0                MOVX    A,@DPTR
01D4 FF                MOV     R7,A
01D5 EF                MOV     A,R7
01D6 4E                ORL     A,R6
01D7 6007              JZ      ?C0022
                                           ; SOURCE LINE # 211
                                           ; SOURCE LINE # 212
01D9 7F00              MOV     R7,#00H
01DB 7E00              MOV     R6,#00H
01DD 120000      E     LCALL   _CyBusClk_SetDivider
                                           ; SOURCE LINE # 213
01E0         ?C0022:
                                           ; SOURCE LINE # 216
01E0 904005            MOV     DPTR,#04005H
01E3 E0                MOVX    A,@DPTR
01E4 FF                MOV     R7,A
01E5 EF                MOV     A,R7
01E6 54F0              ANL     A,#0F0H
01E8 FF                MOV     R7,A
01E9 7E00              MOV     R6,#00H
01EB EE                MOV     A,R6
01EC C4                SWAP    A
01ED F8                MOV     R0,A
01EE 54F0              ANL     A,#0F0H
01F0 C8                XCH     A,R0
01F1 68                XRL     A,R0
01F2 FE                MOV     R6,A
01F3 EF                MOV     A,R7
01F4 C4                SWAP    A
01F5 540F              ANL     A,#0FH
01F7 48                ORL     A,R0
01F8 FF                MOV     R7,A
01F9 EF                MOV     A,R7
01FA 04                INC     A
01FB FF                MOV     R7,A
01FC AB07              MOV     R3,AR7
01FE E4                CLR     A
01FF FA                MOV     R2,A
0200 F9                MOV     R1,A
0201 F8                MOV     R0,A
0202 904200            MOV     DPTR,#04200H
0205 E0                MOVX    A,@DPTR
0206 FF                MOV     R7,A
C51 COMPILER V9.51   CYPM                                                                  11/20/2019 09:16:33 PAGE 39  

0207 EF                MOV     A,R7
0208 5407              ANL     A,#07H
020A FF                MOV     R7,A
020B EF                MOV     A,R7
020C 900000      R     MOV     DPTR,#cyPmImoFreqReg2Mhz
020F 93                MOVC    A,@A+DPTR
0210 FF                MOV     R7,A
0211 E4                CLR     A
0212 FC                MOV     R4,A
0213 FD                MOV     R5,A
0214 FE                MOV     R6,A
0215 120000      E     LCALL   ?C?ULDIV
0218 120000      E     LCALL   _CyFlash_SetWaitCycles
                                           ; SOURCE LINE # 219
021B 904210            MOV     DPTR,#04210H
021E E0                MOVX    A,@DPTR
021F FF                MOV     R7,A
0220 EF                MOV     A,R7
0221 5401              ANL     A,#01H
0223 FF                MOV     R7,A
0224 7E00              MOV     R6,#00H
0226 EF                MOV     A,R7
0227 4E                ORL     A,R6
0228 600B              JZ      ?C0023
                                           ; SOURCE LINE # 220
                                           ; SOURCE LINE # 222
022A 900000      R     MOV     DPTR,#cyPmClockBackup+0EH
022D 7401              MOV     A,#01H
022F F0                MOVX    @DPTR,A
                                           ; SOURCE LINE # 223
0230 120000      E     LCALL   CyXTAL_Stop
                                           ; SOURCE LINE # 224
0233 8005              SJMP    ?C0024
0235         ?C0023:
                                           ; SOURCE LINE # 226
                                           ; SOURCE LINE # 228
0235 900000      R     MOV     DPTR,#cyPmClockBackup+0EH
0238 E4                CLR     A
0239 F0                MOVX    @DPTR,A
                                           ; SOURCE LINE # 229
023A         ?C0024:
                                           ; SOURCE LINE # 237
023A 90400B            MOV     DPTR,#0400BH
023D E0                MOVX    A,@DPTR
023E FF                MOV     R7,A
023F EF                MOV     A,R7
0240 5404              ANL     A,#04H
0242 FF                MOV     R7,A
0243 7E00              MOV     R6,#00H
0245 EF                MOV     A,R7
0246 4E                ORL     A,R6
0247 6007              JZ      ?C0025
                                           ; SOURCE LINE # 238
                                           ; SOURCE LINE # 239
0249 900000      R     MOV     DPTR,#cyPmClockBackup+0FH
024C 7401              MOV     A,#01H
024E F0                MOVX    @DPTR,A
                                           ; SOURCE LINE # 240
024F 22                RET     
0250         ?C0025:
                                           ; SOURCE LINE # 242
                                           ; SOURCE LINE # 243
C51 COMPILER V9.51   CYPM                                                                  11/20/2019 09:16:33 PAGE 40  

0250 900000      R     MOV     DPTR,#cyPmClockBackup+0FH
0253 E4                CLR     A
0254 F0                MOVX    @DPTR,A
                                           ; SOURCE LINE # 244
                                           ; SOURCE LINE # 245
0255         ?C0027:
0255 22                RET     
             ; FUNCTION CyPmSaveClocks (END)

             ; FUNCTION CyPmRestoreClocks (BEGIN)
                                           ; SOURCE LINE # 268
                                           ; SOURCE LINE # 269
                                           ; SOURCE LINE # 270
0000 900000      R     MOV     DPTR,#status
0003 7410              MOV     A,#010H
0005 F0                MOVX    @DPTR,A
                                           ; SOURCE LINE # 281
0006 900000      R     MOV     DPTR,#cyPmClockBackup+0FH
0009 E0                MOVX    A,@DPTR
000A FF                MOV     R7,A
000B EF                MOV     A,R7
000C 6401              XRL     A,#01H
000E 7051              JNZ     ?C0028
                                           ; SOURCE LINE # 282
                                           ; SOURCE LINE # 285
0010 904005            MOV     DPTR,#04005H
0013 E0                MOVX    A,@DPTR
0014 FF                MOV     R7,A
0015 EF                MOV     A,R7
0016 54F0              ANL     A,#0F0H
0018 FF                MOV     R7,A
0019 7E00              MOV     R6,#00H
001B EE                MOV     A,R6
001C C4                SWAP    A
001D F8                MOV     R0,A
001E 54F0              ANL     A,#0F0H
0020 C8                XCH     A,R0
0021 68                XRL     A,R0
0022 FE                MOV     R6,A
0023 EF                MOV     A,R7
0024 C4                SWAP    A
0025 540F              ANL     A,#0FH
0027 48                ORL     A,R0
0028 FF                MOV     R7,A
0029 EF                MOV     A,R7
002A 04                INC     A
002B FF                MOV     R7,A
002C AB07              MOV     R3,AR7
002E E4                CLR     A
002F FA                MOV     R2,A
0030 F9                MOV     R1,A
0031 F8                MOV     R0,A
0032 904200            MOV     DPTR,#04200H
0035 E0                MOVX    A,@DPTR
0036 FF                MOV     R7,A
0037 EF                MOV     A,R7
0038 5407              ANL     A,#07H
003A FF                MOV     R7,A
003B EF                MOV     A,R7
003C 900000      R     MOV     DPTR,#cyPmImoFreqReg2Mhz
003F 93                MOVC    A,@A+DPTR
0040 FF                MOV     R7,A
C51 COMPILER V9.51   CYPM                                                                  11/20/2019 09:16:33 PAGE 41  

0041 E4                CLR     A
0042 FC                MOV     R4,A
0043 FD                MOV     R5,A
0044 FE                MOV     R6,A
0045 120000      E     LCALL   ?C?ULDIV
0048 7B4B              MOV     R3,#04BH
004A 7A00              MOV     R2,#00H
004C 7900              MOV     R1,#00H
004E 7800              MOV     R0,#00H
0050 120000      E     LCALL   ?C?LMUL
0053 120000      E     LCALL   _CyDelayCycles
                                           ; SOURCE LINE # 287
0056 90400B            MOV     DPTR,#0400BH
0059 E0                MOVX    A,@DPTR
005A FF                MOV     R7,A
005B EF                MOV     A,R7
005C 4404              ORL     A,#04H
005E FF                MOV     R7,A
005F EF                MOV     A,R7
0060 F0                MOVX    @DPTR,A
                                           ; SOURCE LINE # 288
0061         ?C0028:
                                           ; SOURCE LINE # 291
0061 900000      R     MOV     DPTR,#cyPmClockBackup+0EH
0064 E0                MOVX    A,@DPTR
0065 FF                MOV     R7,A
0066 EF                MOV     A,R7
0067 6401              XRL     A,#01H
0069 6003              JZ      $ + 5H
006B 020000      R     LJMP    ?C0029
                                           ; SOURCE LINE # 292
                                           ; SOURCE LINE # 301
006E 7F00              MOV     R7,#00H
0070 120000      E     LCALL   _CyXTAL_Start
                                           ; SOURCE LINE # 304
0073 904210            MOV     DPTR,#04210H
0076 E0                MOVX    A,@DPTR
0077 FF                MOV     R7,A
                                           ; SOURCE LINE # 307
0078 900000      R     MOV     DPTR,#i
007B E4                CLR     A
007C F0                MOVX    @DPTR,A
007D A3                INC     DPTR
007E 7405              MOV     A,#05H
0080 F0                MOVX    @DPTR,A
0081         ?C0030:
0081 900000      R     MOV     DPTR,#i
0084 E0                MOVX    A,@DPTR
0085 FE                MOV     R6,A
0086 A3                INC     DPTR
0087 E0                MOVX    A,@DPTR
0088 FF                MOV     R7,A
0089 D3                SETB    C
008A EF                MOV     A,R7
008B 9400              SUBB    A,#00H
008D EE                MOV     A,R6
008E 9400              SUBB    A,#00H
0090 4069              JC      ?C0031
                                           ; SOURCE LINE # 308
                                           ; SOURCE LINE # 310
0092 904005            MOV     DPTR,#04005H
0095 E0                MOVX    A,@DPTR
C51 COMPILER V9.51   CYPM                                                                  11/20/2019 09:16:33 PAGE 42  

0096 FF                MOV     R7,A
0097 EF                MOV     A,R7
0098 54F0              ANL     A,#0F0H
009A FF                MOV     R7,A
009B 7E00              MOV     R6,#00H
009D EE                MOV     A,R6
009E C4                SWAP    A
009F F8                MOV     R0,A
00A0 54F0              ANL     A,#0F0H
00A2 C8                XCH     A,R0
00A3 68                XRL     A,R0
00A4 FE                MOV     R6,A
00A5 EF                MOV     A,R7
00A6 C4                SWAP    A
00A7 540F              ANL     A,#0FH
00A9 48                ORL     A,R0
00AA FF                MOV     R7,A
00AB EF                MOV     A,R7
00AC 04                INC     A
00AD FF                MOV     R7,A
00AE AB07              MOV     R3,AR7
00B0 E4                CLR     A
00B1 FA                MOV     R2,A
00B2 F9                MOV     R1,A
00B3 F8                MOV     R0,A
00B4 904200            MOV     DPTR,#04200H
00B7 E0                MOVX    A,@DPTR
00B8 FF                MOV     R7,A
00B9 EF                MOV     A,R7
00BA 5407              ANL     A,#07H
00BC FF                MOV     R7,A
00BD EF                MOV     A,R7
00BE 900000      R     MOV     DPTR,#cyPmImoFreqReg2Mhz
00C1 93                MOVC    A,@A+DPTR
00C2 FF                MOV     R7,A
00C3 E4                CLR     A
00C4 FC                MOV     R4,A
00C5 FD                MOV     R5,A
00C6 FE                MOV     R6,A
00C7 120000      E     LCALL   ?C?ULDIV
00CA 7BC8              MOV     R3,#0C8H
00CC 7A00              MOV     R2,#00H
00CE 7900              MOV     R1,#00H
00D0 7800              MOV     R0,#00H
00D2 120000      E     LCALL   ?C?LMUL
00D5 120000      E     LCALL   _CyDelayCycles
                                           ; SOURCE LINE # 313
00D8 904210            MOV     DPTR,#04210H
00DB E0                MOVX    A,@DPTR
00DC FF                MOV     R7,A
00DD EF                MOV     A,R7
00DE 5480              ANL     A,#080H
00E0 FF                MOV     R7,A
00E1 7E00              MOV     R6,#00H
00E3 EF                MOV     A,R7
00E4 4E                ORL     A,R6
00E5 7007              JNZ     ?C0032
                                           ; SOURCE LINE # 314
                                           ; SOURCE LINE # 315
00E7 900000      R     MOV     DPTR,#status
00EA E4                CLR     A
00EB F0                MOVX    @DPTR,A
C51 COMPILER V9.51   CYPM                                                                  11/20/2019 09:16:33 PAGE 43  

                                           ; SOURCE LINE # 316
00EC 800D              SJMP    ?C0031
                                           ; SOURCE LINE # 317
                                           ; SOURCE LINE # 318
00EE         ?C0032:
00EE 900000      R     MOV     DPTR,#i
00F1 74FF              MOV     A,#0FFH
00F3 75F0FF            MOV     B,#0FFH
00F6 120000      E     LCALL   ?C?IILDX
00F9 8086              SJMP    ?C0030
00FB         ?C0031:
                                           ; SOURCE LINE # 320
                                           ; SOURCE LINE # 321
                                           ; SOURCE LINE # 333
                                           ; SOURCE LINE # 334
00FB         ?C0029:
                                           ; SOURCE LINE # 338
00FB 7F2D              MOV     R7,#02DH
00FD 120000      E     LCALL   _CyFlash_SetWaitCycles
                                           ; SOURCE LINE # 341
0100 900000      R     MOV     DPTR,#cyPmClockBackup+02H
0103 E0                MOVX    A,@DPTR
0104 FF                MOV     R7,A
0105 EF                MOV     A,R7
0106 6402              XRL     A,#02H
0108 6009              JZ      ?C0036
010A 900000      R     MOV     DPTR,#cyPmClockBackup+02H
010D E0                MOVX    A,@DPTR
010E FF                MOV     R7,A
010F EF                MOV     A,R7
0110 B4031E            CJNE    A,#03H,?C0035
0113         ?C0036:
                                           ; SOURCE LINE # 343
                                           ; SOURCE LINE # 345
0113 900000      R     MOV     DPTR,#cyPmClockBackup+0AH
0116 E0                MOVX    A,@DPTR
0117 FF                MOV     R7,A
0118 904004            MOV     DPTR,#04004H
011B E0                MOVX    A,@DPTR
011C FE                MOV     R6,A
011D EE                MOV     A,R6
011E 6F                XRL     A,R7
011F 6008              JZ      ?C0037
                                           ; SOURCE LINE # 346
                                           ; SOURCE LINE # 348
0121 900000      R     MOV     DPTR,#cyPmClockBackup+0AH
0124 E0                MOVX    A,@DPTR
0125 FF                MOV     R7,A
0126 120000      E     LCALL   _CyMasterClk_SetDivider
                                           ; SOURCE LINE # 349
0129         ?C0037:
                                           ; SOURCE LINE # 352
0129 900000      R     MOV     DPTR,#cyPmClockBackup+02H
012C E0                MOVX    A,@DPTR
012D FF                MOV     R7,A
012E 120000      E     LCALL   _CyMasterClk_SetSource
                                           ; SOURCE LINE # 353
0131         ?C0035:
                                           ; SOURCE LINE # 356
0131 900000      R     MOV     DPTR,#cyPmClockBackup+04H
0134 E0                MOVX    A,@DPTR
0135 FF                MOV     R7,A
C51 COMPILER V9.51   CYPM                                                                  11/20/2019 09:16:33 PAGE 44  

0136 EF                MOV     A,R7
0137 5440              ANL     A,#040H
0139 FF                MOV     R7,A
013A 7E00              MOV     R6,#00H
013C EF                MOV     A,R7
013D 4E                ORL     A,R6
013E 6016              JZ      ?C0038
0140 900000      R     MOV     DPTR,#cyPmClockBackup+03H
0143 E0                MOVX    A,@DPTR
0144 FF                MOV     R7,A
0145 EF                MOV     A,R7
0146 900000      R     MOV     DPTR,#cyPmImoFreqMhz2Reg
0149 93                MOVC    A,@A+DPTR
014A FF                MOV     R7,A
014B EF                MOV     A,R7
014C B40307            CJNE    A,#03H,?C0038
                                           ; SOURCE LINE # 358
                                           ; SOURCE LINE # 360
014F 7F08              MOV     R7,#08H
0151 120000      E     LCALL   _CyIMO_SetFreq
                                           ; SOURCE LINE # 361
0154 8035              SJMP    ?C0039
0156         ?C0038:
                                           ; SOURCE LINE # 363
                                           ; SOURCE LINE # 365
0156 900000      R     MOV     DPTR,#cyPmClockBackup+03H
0159 E0                MOVX    A,@DPTR
015A FF                MOV     R7,A
015B EF                MOV     A,R7
015C 900000      R     MOV     DPTR,#cyPmImoFreqMhz2Reg
015F 93                MOVC    A,@A+DPTR
0160 FF                MOV     R7,A
0161 120000      E     LCALL   _CyIMO_SetFreq
                                           ; SOURCE LINE # 367
0164 900000      R     MOV     DPTR,#cyPmClockBackup+04H
0167 E0                MOVX    A,@DPTR
0168 FF                MOV     R7,A
0169 EF                MOV     A,R7
016A 5440              ANL     A,#040H
016C FF                MOV     R7,A
016D 7E00              MOV     R6,#00H
016F EF                MOV     A,R7
0170 4E                ORL     A,R6
0171 600D              JZ      ?C0040
                                           ; SOURCE LINE # 368
                                           ; SOURCE LINE # 369
0173 904200            MOV     DPTR,#04200H
0176 E0                MOVX    A,@DPTR
0177 FF                MOV     R7,A
0178 EF                MOV     A,R7
0179 4440              ORL     A,#040H
017B FF                MOV     R7,A
017C EF                MOV     A,R7
017D F0                MOVX    @DPTR,A
                                           ; SOURCE LINE # 370
017E 800B              SJMP    ?C0039
0180         ?C0040:
                                           ; SOURCE LINE # 372
                                           ; SOURCE LINE # 373
0180 904200            MOV     DPTR,#04200H
0183 E0                MOVX    A,@DPTR
0184 FF                MOV     R7,A
C51 COMPILER V9.51   CYPM                                                                  11/20/2019 09:16:33 PAGE 45  

0185 EF                MOV     A,R7
0186 54BF              ANL     A,#0BFH
0188 FF                MOV     R7,A
0189 EF                MOV     A,R7
018A F0                MOVX    @DPTR,A
                                           ; SOURCE LINE # 374
                                           ; SOURCE LINE # 375
018B         ?C0039:
                                           ; SOURCE LINE # 379
018B 900000      R     MOV     DPTR,#cyPmClockBackup+06H
018E E0                MOVX    A,@DPTR
018F FF                MOV     R7,A
0190 EF                MOV     A,R7
0191 B40114            CJNE    A,#01H,?C0042
0194 9043A0            MOV     DPTR,#043A0H
0197 E0                MOVX    A,@DPTR
0198 FF                MOV     R7,A
0199 EF                MOV     A,R7
019A 5410              ANL     A,#010H
019C FF                MOV     R7,A
019D 7E00              MOV     R6,#00H
019F EF                MOV     A,R7
01A0 4E                ORL     A,R6
01A1 7005              JNZ     ?C0042
                                           ; SOURCE LINE # 380
                                           ; SOURCE LINE # 382
01A3 7F00              MOV     R7,#00H
01A5 120000      E     LCALL   _CyIMO_Start
                                           ; SOURCE LINE # 383
01A8         ?C0042:
                                           ; SOURCE LINE # 386
01A8 900000      R     MOV     DPTR,#cyPmClockBackup+07H
01AB E0                MOVX    A,@DPTR
01AC FF                MOV     R7,A
01AD 120000      E     LCALL   _CyIMO_SetSource
                                           ; SOURCE LINE # 389
01B0 900000      R     MOV     DPTR,#cyPmClockBackup+09H
01B3 E0                MOVX    A,@DPTR
01B4 FF                MOV     R7,A
01B5 EF                MOV     A,R7
01B6 B40103            CJNE    A,#01H,?C0043
                                           ; SOURCE LINE # 390
                                           ; SOURCE LINE # 391
01B9 120000      E     LCALL   CyIMO_EnableDoubler
                                           ; SOURCE LINE # 392
01BC         ?C0043:
                                           ; SOURCE LINE # 395
01BC 904000            MOV     DPTR,#04000H
01BF E0                MOVX    A,@DPTR
01C0 FF                MOV     R7,A
01C1 EF                MOV     A,R7
01C2 5430              ANL     A,#030H
01C4 FF                MOV     R7,A
01C5 7E00              MOV     R6,#00H
01C7 900000      R     MOV     DPTR,#cyPmClockBackup+08H
01CA E0                MOVX    A,@DPTR
01CB FD                MOV     R5,A
01CC 7C00              MOV     R4,#00H
01CE ED                MOV     A,R5
01CF 6F                XRL     A,R7
01D0 7002              JNZ     ?C0137
01D2 EC                MOV     A,R4
C51 COMPILER V9.51   CYPM                                                                  11/20/2019 09:16:33 PAGE 46  

01D3 6E                XRL     A,R6
01D4         ?C0137:
01D4 6016              JZ      ?C0044
                                           ; SOURCE LINE # 396
                                           ; SOURCE LINE # 397
01D6 904000            MOV     DPTR,#04000H
01D9 E0                MOVX    A,@DPTR
01DA FF                MOV     R7,A
01DB EF                MOV     A,R7
01DC 54CF              ANL     A,#0CFH
01DE FF                MOV     R7,A
01DF 900000      R     MOV     DPTR,#cyPmClockBackup+08H
01E2 E0                MOVX    A,@DPTR
01E3 FE                MOV     R6,A
01E4 EF                MOV     A,R7
01E5 4E                ORL     A,R6
01E6 FF                MOV     R7,A
01E7 904000            MOV     DPTR,#04000H
01EA EF                MOV     A,R7
01EB F0                MOVX    @DPTR,A
                                           ; SOURCE LINE # 399
01EC         ?C0044:
                                           ; SOURCE LINE # 403
01EC 900000      R     MOV     DPTR,#cyPmClockBackup+0DH
01EF E0                MOVX    A,@DPTR
01F0 FF                MOV     R7,A
01F1 EF                MOV     A,R7
01F2 6401              XRL     A,#01H
01F4 706A              JNZ     ?C0045
                                           ; SOURCE LINE # 404
                                           ; SOURCE LINE # 411
01F6 900000      R     MOV     DPTR,#status
01F9 7410              MOV     A,#010H
01FB F0                MOVX    @DPTR,A
                                           ; SOURCE LINE # 414
01FC 7F00              MOV     R7,#00H
01FE 120000      E     LCALL   _CyPLL_OUT_Start
                                           ; SOURCE LINE # 417
0201 7F50              MOV     R7,#050H
0203 7E00              MOV     R6,#00H
0205 120000      E     LCALL   _CyDelayUs
                                           ; SOURCE LINE # 418
0208 904225            MOV     DPTR,#04225H
020B E0                MOVX    A,@DPTR
020C FF                MOV     R7,A
                                           ; SOURCE LINE # 421
020D 900000      R     MOV     DPTR,#i
0210 E4                CLR     A
0211 F0                MOVX    @DPTR,A
0212 A3                INC     DPTR
0213 74AB              MOV     A,#0ABH
0215 F0                MOVX    @DPTR,A
0216         ?C0046:
0216 900000      R     MOV     DPTR,#i
0219 E0                MOVX    A,@DPTR
021A FE                MOV     R6,A
021B A3                INC     DPTR
021C E0                MOVX    A,@DPTR
021D FF                MOV     R7,A
021E D3                SETB    C
021F EF                MOV     A,R7
0220 9400              SUBB    A,#00H
C51 COMPILER V9.51   CYPM                                                                  11/20/2019 09:16:33 PAGE 47  

0222 EE                MOV     A,R6
0223 9400              SUBB    A,#00H
0225 4039              JC      ?C0047
                                           ; SOURCE LINE # 422
                                           ; SOURCE LINE # 423
0227 7F01              MOV     R7,#01H
0229 7E00              MOV     R6,#00H
022B 120000      E     LCALL   _CyDelayUs
                                           ; SOURCE LINE # 427
022E 904225            MOV     DPTR,#04225H
0231 E0                MOVX    A,@DPTR
0232 FF                MOV     R7,A
0233 EF                MOV     A,R7
0234 5401              ANL     A,#01H
0236 FF                MOV     R7,A
0237 7E00              MOV     R6,#00H
0239 EF                MOV     A,R7
023A 4E                ORL     A,R6
023B 6016              JZ      ?C0048
023D 904225            MOV     DPTR,#04225H
0240 E0                MOVX    A,@DPTR
0241 FF                MOV     R7,A
0242 EF                MOV     A,R7
0243 5401              ANL     A,#01H
0245 FF                MOV     R7,A
0246 7E00              MOV     R6,#00H
0248 EF                MOV     A,R7
0249 4E                ORL     A,R6
024A 6007              JZ      ?C0048
                                           ; SOURCE LINE # 428
                                           ; SOURCE LINE # 429
024C 900000      R     MOV     DPTR,#status
024F E4                CLR     A
0250 F0                MOVX    @DPTR,A
                                           ; SOURCE LINE # 430
0251 800D              SJMP    ?C0047
                                           ; SOURCE LINE # 431
                                           ; SOURCE LINE # 432
0253         ?C0048:
0253 900000      R     MOV     DPTR,#i
0256 74FF              MOV     A,#0FFH
0258 75F0FF            MOV     B,#0FFH
025B 120000      E     LCALL   ?C?IILDX
025E 80B6              SJMP    ?C0046
0260         ?C0047:
                                           ; SOURCE LINE # 434
                                           ; SOURCE LINE # 435
                                           ; SOURCE LINE # 446
                                           ; SOURCE LINE # 447
0260         ?C0045:
                                           ; SOURCE LINE # 451
0260 900000      R     MOV     DPTR,#cyPmClockBackup+02H
0263 E0                MOVX    A,@DPTR
0264 FF                MOV     R7,A
0265 EF                MOV     A,R7
0266 6009              JZ      ?C0052
0268 900000      R     MOV     DPTR,#cyPmClockBackup+02H
026B E0                MOVX    A,@DPTR
026C FF                MOV     R7,A
026D EF                MOV     A,R7
026E B4011E            CJNE    A,#01H,?C0051
0271         ?C0052:
C51 COMPILER V9.51   CYPM                                                                  11/20/2019 09:16:33 PAGE 48  

                                           ; SOURCE LINE # 453
                                           ; SOURCE LINE # 455
0271 900000      R     MOV     DPTR,#cyPmClockBackup+0AH
0274 E0                MOVX    A,@DPTR
0275 FF                MOV     R7,A
0276 904004            MOV     DPTR,#04004H
0279 E0                MOVX    A,@DPTR
027A FE                MOV     R6,A
027B EE                MOV     A,R6
027C 6F                XRL     A,R7
027D 6008              JZ      ?C0053
                                           ; SOURCE LINE # 456
                                           ; SOURCE LINE # 457
027F 900000      R     MOV     DPTR,#cyPmClockBackup+0AH
0282 E0                MOVX    A,@DPTR
0283 FF                MOV     R7,A
0284 120000      E     LCALL   _CyMasterClk_SetDivider
                                           ; SOURCE LINE # 458
0287         ?C0053:
                                           ; SOURCE LINE # 461
0287 900000      R     MOV     DPTR,#cyPmClockBackup+02H
028A E0                MOVX    A,@DPTR
028B FF                MOV     R7,A
028C 120000      E     LCALL   _CyMasterClk_SetSource
                                           ; SOURCE LINE # 462
028F         ?C0051:
                                           ; SOURCE LINE # 466
028F 900000      R     MOV     DPTR,#cyPmClockBackup+06H
0292 E0                MOVX    A,@DPTR
0293 FF                MOV     R7,A
0294 EF                MOV     A,R7
0295 7012              JNZ     ?C0054
0297 9043A0            MOV     DPTR,#043A0H
029A E0                MOVX    A,@DPTR
029B FF                MOV     R7,A
029C EF                MOV     A,R7
029D 5410              ANL     A,#010H
029F FF                MOV     R7,A
02A0 7E00              MOV     R6,#00H
02A2 EF                MOV     A,R7
02A3 4E                ORL     A,R6
02A4 6003              JZ      ?C0054
                                           ; SOURCE LINE # 467
                                           ; SOURCE LINE # 468
02A6 120000      E     LCALL   CyIMO_Stop
                                           ; SOURCE LINE # 469
02A9         ?C0054:
                                           ; SOURCE LINE # 472
02A9 904007            MOV     DPTR,#04007H
02AC E0                MOVX    A,@DPTR
02AD FF                MOV     R7,A
02AE 7E00              MOV     R6,#00H
02B0 EF                MOV     A,R7
02B1 7F00              MOV     R7,#00H
02B3 FE                MOV     R6,A
02B4 900000      R     MOV     DPTR,#clkBusDivTmp
02B7 EE                MOV     A,R6
02B8 F0                MOVX    @DPTR,A
02B9 A3                INC     DPTR
02BA EF                MOV     A,R7
02BB F0                MOVX    @DPTR,A
                                           ; SOURCE LINE # 473
C51 COMPILER V9.51   CYPM                                                                  11/20/2019 09:16:33 PAGE 49  

02BC 900000      R     MOV     DPTR,#clkBusDivTmp
02BF E0                MOVX    A,@DPTR
02C0 FE                MOV     R6,A
02C1 A3                INC     DPTR
02C2 E0                MOVX    A,@DPTR
02C3 FF                MOV     R7,A
02C4 904006            MOV     DPTR,#04006H
02C7 E0                MOVX    A,@DPTR
02C8 FD                MOV     R5,A
02C9 7C00              MOV     R4,#00H
02CB EE                MOV     A,R6
02CC 4C                ORL     A,R4
02CD FE                MOV     R6,A
02CE EF                MOV     A,R7
02CF 4D                ORL     A,R5
02D0 FF                MOV     R7,A
02D1 900000      R     MOV     DPTR,#clkBusDivTmp
02D4 EE                MOV     A,R6
02D5 F0                MOVX    @DPTR,A
02D6 A3                INC     DPTR
02D7 EF                MOV     A,R7
02D8 F0                MOVX    @DPTR,A
                                           ; SOURCE LINE # 474
02D9 900000      R     MOV     DPTR,#clkBusDivTmp
02DC E0                MOVX    A,@DPTR
02DD FE                MOV     R6,A
02DE A3                INC     DPTR
02DF E0                MOVX    A,@DPTR
02E0 FF                MOV     R7,A
02E1 900000      R     MOV     DPTR,#cyPmClockBackup+0BH
02E4 E0                MOVX    A,@DPTR
02E5 FC                MOV     R4,A
02E6 A3                INC     DPTR
02E7 E0                MOVX    A,@DPTR
02E8 FD                MOV     R5,A
02E9 ED                MOV     A,R5
02EA 6F                XRL     A,R7
02EB 7002              JNZ     ?C0138
02ED EC                MOV     A,R4
02EE 6E                XRL     A,R6
02EF         ?C0138:
02EF 600B              JZ      ?C0055
                                           ; SOURCE LINE # 475
                                           ; SOURCE LINE # 476
02F1 900000      R     MOV     DPTR,#cyPmClockBackup+0BH
02F4 E0                MOVX    A,@DPTR
02F5 FE                MOV     R6,A
02F6 A3                INC     DPTR
02F7 E0                MOVX    A,@DPTR
02F8 FF                MOV     R7,A
02F9 120000      E     LCALL   _CyBusClk_SetDivider
                                           ; SOURCE LINE # 477
02FC         ?C0055:
                                           ; SOURCE LINE # 480
02FC 904800            MOV     DPTR,#04800H
02FF E0                MOVX    A,@DPTR
0300 FF                MOV     R7,A
0301 EF                MOV     A,R7
0302 543F              ANL     A,#03FH
0304 FF                MOV     R7,A
0305 900000      R     MOV     DPTR,#cyPmClockBackup+05H
0308 E0                MOVX    A,@DPTR
C51 COMPILER V9.51   CYPM                                                                  11/20/2019 09:16:33 PAGE 50  

0309 FE                MOV     R6,A
030A EF                MOV     A,R7
030B 4E                ORL     A,R6
030C FF                MOV     R7,A
030D 904800            MOV     DPTR,#04800H
0310 EF                MOV     A,R7
0311 F0                MOVX    @DPTR,A
                                           ; SOURCE LINE # 484
0312 900000      R     MOV     DPTR,#cyPmClockBackup
0315 E0                MOVX    A,@DPTR
0316 FF                MOV     R7,A
0317 9043A1            MOV     DPTR,#043A1H
031A EF                MOV     A,R7
031B F0                MOVX    @DPTR,A
                                           ; SOURCE LINE # 485
031C 900000      R     MOV     DPTR,#cyPmClockBackup+01H
031F E0                MOVX    A,@DPTR
0320 FF                MOV     R7,A
0321 9043A2            MOV     DPTR,#043A2H
0324 EF                MOV     A,R7
0325 F0                MOVX    @DPTR,A
                                           ; SOURCE LINE # 486
0326 22                RET     
             ; FUNCTION CyPmRestoreClocks (END)

             ; FUNCTION _CyPmAltAct (BEGIN)
                                           ; SOURCE LINE # 625
0000 900000      R     MOV     DPTR,#wakeupTime
0003 EE                MOV     A,R6
0004 F0                MOVX    @DPTR,A
0005 A3                INC     DPTR
0006 EF                MOV     A,R7
0007 F0                MOVX    @DPTR,A
0008 900000      R     MOV     DPTR,#wakeupSource
000B EC                MOV     A,R4
000C F0                MOVX    @DPTR,A
000D A3                INC     DPTR
000E ED                MOV     A,R5
000F F0                MOVX    @DPTR,A
                                           ; SOURCE LINE # 626
                                           ; SOURCE LINE # 643
0010 900000      R     MOV     DPTR,#wakeupTime
0013 E0                MOVX    A,@DPTR
0014 FE                MOV     R6,A
0015 A3                INC     DPTR
0016 E0                MOVX    A,@DPTR
0017 FF                MOV     R7,A
0018 C3                CLR     C
0019 EF                MOV     A,R7
001A 940F              SUBB    A,#0FH
001C EE                MOV     A,R6
001D 9400              SUBB    A,#00H
001F 4034              JC      ?C0057
0021 900000      R     MOV     DPTR,#wakeupTime
0024 E0                MOVX    A,@DPTR
0025 FE                MOV     R6,A
0026 A3                INC     DPTR
0027 E0                MOVX    A,@DPTR
0028 FF                MOV     R7,A
0029 D3                SETB    C
002A EF                MOV     A,R7
002B 940E              SUBB    A,#0EH
C51 COMPILER V9.51   CYPM                                                                  11/20/2019 09:16:33 PAGE 51  

002D EE                MOV     A,R6
002E 9401              SUBB    A,#01H
0030 5023              JNC     ?C0057
                                           ; SOURCE LINE # 644
                                           ; SOURCE LINE # 645
0032 900000      R     MOV     DPTR,#wakeupTime
0035 E0                MOVX    A,@DPTR
0036 FE                MOV     R6,A
0037 A3                INC     DPTR
0038 E0                MOVX    A,@DPTR
0039 FF                MOV     R7,A
003A EF                MOV     A,R7
003B 24F2              ADD     A,#0F2H
003D FF                MOV     R7,A
003E 120000      R     LCALL   _CyPmFtwSetInterval
                                           ; SOURCE LINE # 648
0041 900000      R     MOV     DPTR,#wakeupSource
0044 E0                MOVX    A,@DPTR
0045 FE                MOV     R6,A
0046 A3                INC     DPTR
0047 E0                MOVX    A,@DPTR
0048 FF                MOV     R7,A
0049 EE                MOV     A,R6
004A 4404              ORL     A,#04H
004C FE                MOV     R6,A
004D 900000      R     MOV     DPTR,#wakeupSource
0050 EE                MOV     A,R6
0051 F0                MOVX    @DPTR,A
0052 A3                INC     DPTR
0053 EF                MOV     A,R7
0054 F0                MOVX    @DPTR,A
                                           ; SOURCE LINE # 649
0055         ?C0057:
                                           ; SOURCE LINE # 652
0055 900000      R     MOV     DPTR,#wakeupTime
0058 E0                MOVX    A,@DPTR
0059 FE                MOV     R6,A
005A A3                INC     DPTR
005B E0                MOVX    A,@DPTR
005C FF                MOV     R7,A
005D C3                CLR     C
005E EF                MOV     A,R7
005F 9402              SUBB    A,#02H
0061 EE                MOV     A,R6
0062 9400              SUBB    A,#00H
0064 4033              JC      ?C0058
0066 900000      R     MOV     DPTR,#wakeupTime
0069 E0                MOVX    A,@DPTR
006A FE                MOV     R6,A
006B A3                INC     DPTR
006C E0                MOVX    A,@DPTR
006D FF                MOV     R7,A
006E D3                SETB    C
006F EF                MOV     A,R7
0070 940D              SUBB    A,#0DH
0072 EE                MOV     A,R6
0073 9400              SUBB    A,#00H
0075 5022              JNC     ?C0058
                                           ; SOURCE LINE # 653
                                           ; SOURCE LINE # 655
0077 900000      R     MOV     DPTR,#wakeupTime
007A E0                MOVX    A,@DPTR
C51 COMPILER V9.51   CYPM                                                                  11/20/2019 09:16:33 PAGE 52  

007B FE                MOV     R6,A
007C A3                INC     DPTR
007D E0                MOVX    A,@DPTR
007E FF                MOV     R7,A
007F EF                MOV     A,R7
0080 14                DEC     A
0081 FF                MOV     R7,A
0082 120000      R     LCALL   _CyPmCtwSetInterval
                                           ; SOURCE LINE # 658
0085 900000      R     MOV     DPTR,#wakeupSource
0088 E0                MOVX    A,@DPTR
0089 FE                MOV     R6,A
008A A3                INC     DPTR
008B E0                MOVX    A,@DPTR
008C FF                MOV     R7,A
008D EE                MOV     A,R6
008E 4408              ORL     A,#08H
0090 FE                MOV     R6,A
0091 900000      R     MOV     DPTR,#wakeupSource
0094 EE                MOV     A,R6
0095 F0                MOVX    @DPTR,A
0096 A3                INC     DPTR
0097 EF                MOV     A,R7
0098 F0                MOVX    @DPTR,A
                                           ; SOURCE LINE # 659
0099         ?C0058:
                                           ; SOURCE LINE # 662
0099 900000      R     MOV     DPTR,#wakeupTime
009C E0                MOVX    A,@DPTR
009D FE                MOV     R6,A
009E A3                INC     DPTR
009F E0                MOVX    A,@DPTR
00A0 FF                MOV     R7,A
00A1 EF                MOV     A,R7
00A2 6401              XRL     A,#01H
00A4 4E                ORL     A,R6
00A5 7017              JNZ     ?C0059
                                           ; SOURCE LINE # 663
                                           ; SOURCE LINE # 665
00A7 120000      R     LCALL   CyPmOppsSet
                                           ; SOURCE LINE # 668
00AA 900000      R     MOV     DPTR,#wakeupSource
00AD E0                MOVX    A,@DPTR
00AE FE                MOV     R6,A
00AF A3                INC     DPTR
00B0 E0                MOVX    A,@DPTR
00B1 FF                MOV     R7,A
00B2 EE                MOV     A,R6
00B3 4408              ORL     A,#08H
00B5 FE                MOV     R6,A
00B6 900000      R     MOV     DPTR,#wakeupSource
00B9 EE                MOV     A,R6
00BA F0                MOVX    @DPTR,A
00BB A3                INC     DPTR
00BC EF                MOV     A,R7
00BD F0                MOVX    @DPTR,A
                                           ; SOURCE LINE # 669
00BE         ?C0059:
                                           ; SOURCE LINE # 677
00BE 904398            MOV     DPTR,#04398H
00C1 E0                MOVX    A,@DPTR
00C2 FF                MOV     R7,A
C51 COMPILER V9.51   CYPM                                                                  11/20/2019 09:16:33 PAGE 53  

00C3 900000      R     MOV     DPTR,#cyPmBackup+07H
00C6 EF                MOV     A,R7
00C7 F0                MOVX    @DPTR,A
                                           ; SOURCE LINE # 678
00C8 900000      R     MOV     DPTR,#wakeupSource
00CB E0                MOVX    A,@DPTR
00CC FE                MOV     R6,A
00CD A3                INC     DPTR
00CE E0                MOVX    A,@DPTR
00CF FF                MOV     R7,A
00D0 EE                MOV     A,R6
00D1 C4                SWAP    A
00D2 F8                MOV     R0,A
00D3 54F0              ANL     A,#0F0H
00D5 C8                XCH     A,R0
00D6 68                XRL     A,R0
00D7 FE                MOV     R6,A
00D8 EF                MOV     A,R7
00D9 C4                SWAP    A
00DA 540F              ANL     A,#0FH
00DC 48                ORL     A,R0
00DD FF                MOV     R7,A
00DE 904398            MOV     DPTR,#04398H
00E1 EF                MOV     A,R7
00E2 F0                MOVX    @DPTR,A
                                           ; SOURCE LINE # 681
00E3 904399            MOV     DPTR,#04399H
00E6 E0                MOVX    A,@DPTR
00E7 FF                MOV     R7,A
00E8 900000      R     MOV     DPTR,#cyPmBackup+08H
00EB EF                MOV     A,R7
00EC F0                MOVX    @DPTR,A
                                           ; SOURCE LINE # 682
00ED 900000      R     MOV     DPTR,#wakeupSource
00F0 E0                MOVX    A,@DPTR
00F1 FE                MOV     R6,A
00F2 A3                INC     DPTR
00F3 E0                MOVX    A,@DPTR
00F4 FF                MOV     R7,A
00F5 EF                MOV     A,R7
00F6 540F              ANL     A,#0FH
00F8 FF                MOV     R7,A
00F9 904399            MOV     DPTR,#04399H
00FC EF                MOV     A,R7
00FD F0                MOVX    @DPTR,A
                                           ; SOURCE LINE # 685
00FE 90439A            MOV     DPTR,#0439AH
0101 E0                MOVX    A,@DPTR
0102 FF                MOV     R7,A
0103 900000      R     MOV     DPTR,#cyPmBackup+09H
0106 EF                MOV     A,R7
0107 F0                MOVX    @DPTR,A
                                           ; SOURCE LINE # 686
0108 900000      R     MOV     DPTR,#wakeupSource
010B E0                MOVX    A,@DPTR
010C FE                MOV     R6,A
010D A3                INC     DPTR
010E E0                MOVX    A,@DPTR
010F FF                MOV     R7,A
0110 EE                MOV     A,R6
0111 C4                SWAP    A
0112 540F              ANL     A,#0FH
C51 COMPILER V9.51   CYPM                                                                  11/20/2019 09:16:33 PAGE 54  

0114 FF                MOV     R7,A
0115 7E00              MOV     R6,#00H
0117 EF                MOV     A,R7
0118 5401              ANL     A,#01H
011A FF                MOV     R7,A
011B 90439A            MOV     DPTR,#0439AH
011E EF                MOV     A,R7
011F F0                MOVX    @DPTR,A
                                           ; SOURCE LINE # 690
0120 904393            MOV     DPTR,#04393H
0123 E0                MOVX    A,@DPTR
0124 FF                MOV     R7,A
0125 EF                MOV     A,R7
0126 54F8              ANL     A,#0F8H
0128 FF                MOV     R7,A
0129 EF                MOV     A,R7
012A 4401              ORL     A,#01H
012C FF                MOV     R7,A
012D 904393            MOV     DPTR,#04393H
0130 EF                MOV     A,R7
0131 F0                MOVX    @DPTR,A
                                           ; SOURCE LINE # 693
0132 904393            MOV     DPTR,#04393H
0135 E0                MOVX    A,@DPTR
0136 FF                MOV     R7,A
                                           ; SOURCE LINE # 696
0137 00                NOP     
                                           ; SOURCE LINE # 697
0138 00                NOP     
                                           ; SOURCE LINE # 700
0139 00                NOP     
                                           ; SOURCE LINE # 705
013A 900000      R     MOV     DPTR,#cyPmBackup+07H
013D E0                MOVX    A,@DPTR
013E FF                MOV     R7,A
013F 904398            MOV     DPTR,#04398H
0142 EF                MOV     A,R7
0143 F0                MOVX    @DPTR,A
                                           ; SOURCE LINE # 706
0144 900000      R     MOV     DPTR,#cyPmBackup+08H
0147 E0                MOVX    A,@DPTR
0148 FF                MOV     R7,A
0149 904399            MOV     DPTR,#04399H
014C EF                MOV     A,R7
014D F0                MOVX    @DPTR,A
                                           ; SOURCE LINE # 707
014E 900000      R     MOV     DPTR,#cyPmBackup+09H
0151 E0                MOVX    A,@DPTR
0152 FF                MOV     R7,A
0153 90439A            MOV     DPTR,#0439AH
0156 EF                MOV     A,R7
0157 F0                MOVX    @DPTR,A
                                           ; SOURCE LINE # 708
0158 22                RET     
             ; FUNCTION _CyPmAltAct (END)

             ; FUNCTION _CyPmSleep (BEGIN)
                                           ; SOURCE LINE # 824
0000 900000      R     MOV     DPTR,#wakeupTime
0003 EF                MOV     A,R7
0004 F0                MOVX    @DPTR,A
0005 900000      R     MOV     DPTR,#wakeupSource
C51 COMPILER V9.51   CYPM                                                                  11/20/2019 09:16:33 PAGE 55  

0008 EC                MOV     A,R4
0009 F0                MOVX    @DPTR,A
000A A3                INC     DPTR
000B ED                MOV     A,R5
000C F0                MOVX    @DPTR,A
                                           ; SOURCE LINE # 825
                                           ; SOURCE LINE # 829
000D 120000      E     LCALL   CyEnterCriticalSection
0010 900000      R     MOV     DPTR,#interruptState
0013 EF                MOV     A,R7
0014 F0                MOVX    @DPTR,A
                                           ; SOURCE LINE # 838
0015 904393            MOV     DPTR,#04393H
0018 E0                MOVX    A,@DPTR
0019 FF                MOV     R7,A
001A EF                MOV     A,R7
001B 5408              ANL     A,#08H
001D FF                MOV     R7,A
001E 7E00              MOV     R6,#00H
0020 EF                MOV     A,R7
0021 4E                ORL     A,R6
0022 700D              JNZ     ?C0061
                                           ; SOURCE LINE # 839
                                           ; SOURCE LINE # 841
0024 904683            MOV     DPTR,#04683H
0027 E0                MOVX    A,@DPTR
0028 FF                MOV     R7,A
0029 EF                MOV     A,R7
002A 541F              ANL     A,#01FH
002C FF                MOV     R7,A
002D EF                MOV     A,R7
002E F0                MOVX    @DPTR,A
                                           ; SOURCE LINE # 842
002F 8009              SJMP    ?C0062
0031         ?C0061:
                                           ; SOURCE LINE # 844
                                           ; SOURCE LINE # 848
0031 900000      R     MOV     DPTR,#interruptState
0034 E0                MOVX    A,@DPTR
0035 FF                MOV     R7,A
0036 120000      E     LCALL   _CyExitCriticalSection
0039 22                RET     
                                           ; SOURCE LINE # 851
003A         ?C0062:
                                           ; SOURCE LINE # 868
003A 9046EC            MOV     DPTR,#046ECH
003D E0                MOVX    A,@DPTR
003E FF                MOV     R7,A
003F EF                MOV     A,R7
0040 C3                CLR     C
0041 9405              SUBB    A,#05H
0043 501A              JNC     ?C0064
                                           ; SOURCE LINE # 869
                                           ; SOURCE LINE # 871
0045 904689            MOV     DPTR,#04689H
0048 E0                MOVX    A,@DPTR
0049 FF                MOV     R7,A
004A EF                MOV     A,R7
004B 5401              ANL     A,#01H
004D FF                MOV     R7,A
004E 7E00              MOV     R6,#00H
0050 EF                MOV     A,R7
C51 COMPILER V9.51   CYPM                                                                  11/20/2019 09:16:33 PAGE 56  

0051 4E                ORL     A,R6
0052 7003              JNZ     ?C0066
0054 D3                SETB    C
0055 8001              SJMP    ?C0067
0057         ?C0066:
0057 C3                CLR     C
0058         ?C0067:
0058 4005              JC      ?C0064
005A 7F00              MOV     R7,#00H
005C 120000      E     LCALL   _?CyHalt
                                           ; SOURCE LINE # 872
005F         ?C0064:
                                           ; SOURCE LINE # 875
005F 9046F5            MOV     DPTR,#046F5H
0062 E0                MOVX    A,@DPTR
0063 FF                MOV     R7,A
0064 EF                MOV     A,R7
0065 5407              ANL     A,#07H
0067 FF                MOV     R7,A
0068 7E00              MOV     R6,#00H
006A EF                MOV     A,R7
006B 4E                ORL     A,R6
006C 6039              JZ      ?C0068
                                           ; SOURCE LINE # 877
                                           ; SOURCE LINE # 878
006E 9046EC            MOV     DPTR,#046ECH
0071 E0                MOVX    A,@DPTR
0072 FF                MOV     R7,A
0073 EF                MOV     A,R7
0074 C3                CLR     C
0075 9405              SUBB    A,#05H
0077 5007              JNC     ?C0069
                                           ; SOURCE LINE # 879
                                           ; SOURCE LINE # 881
0079 7F00              MOV     R7,#00H
007B 120000      E     LCALL   _?CyHalt
                                           ; SOURCE LINE # 882
007E 8027              SJMP    ?C0068
0080         ?C0069:
                                           ; SOURCE LINE # 884
                                           ; SOURCE LINE # 885
0080 904689            MOV     DPTR,#04689H
0083 E0                MOVX    A,@DPTR
0084 FF                MOV     R7,A
0085 EF                MOV     A,R7
0086 5401              ANL     A,#01H
0088 FF                MOV     R7,A
0089 7E00              MOV     R6,#00H
008B EF                MOV     A,R7
008C 4E                ORL     A,R6
008D 7012              JNZ     ?C0072
                                           ; SOURCE LINE # 886
                                           ; SOURCE LINE # 887
008F 900000      R     MOV     DPTR,#cyPmBackup+06H
0092 E4                CLR     A
0093 F0                MOVX    @DPTR,A
                                           ; SOURCE LINE # 888
0094 904689            MOV     DPTR,#04689H
0097 E0                MOVX    A,@DPTR
0098 FF                MOV     R7,A
0099 EF                MOV     A,R7
009A 4401              ORL     A,#01H
C51 COMPILER V9.51   CYPM                                                                  11/20/2019 09:16:33 PAGE 57  

009C FF                MOV     R7,A
009D EF                MOV     A,R7
009E F0                MOVX    @DPTR,A
                                           ; SOURCE LINE # 889
009F 8006              SJMP    ?C0068
00A1         ?C0072:
                                           ; SOURCE LINE # 891
                                           ; SOURCE LINE # 892
00A1 900000      R     MOV     DPTR,#cyPmBackup+06H
00A4 7401              MOV     A,#01H
00A6 F0                MOVX    @DPTR,A
                                           ; SOURCE LINE # 893
                                           ; SOURCE LINE # 894
                                           ; SOURCE LINE # 895
00A7         ?C0068:
                                           ; SOURCE LINE # 920
00A7 120000      R     LCALL   CyPmHibSlpSaveSet
                                           ; SOURCE LINE # 926
00AA 900000      R     MOV     DPTR,#wakeupTime
00AD E0                MOVX    A,@DPTR
00AE FF                MOV     R7,A
00AF EF                MOV     A,R7
00B0 C3                CLR     C
00B1 9402              SUBB    A,#02H
00B3 402A              JC      ?C0074
00B5 900000      R     MOV     DPTR,#wakeupTime
00B8 E0                MOVX    A,@DPTR
00B9 FF                MOV     R7,A
00BA EF                MOV     A,R7
00BB D3                SETB    C
00BC 940D              SUBB    A,#0DH
00BE 501F              JNC     ?C0074
                                           ; SOURCE LINE # 927
                                           ; SOURCE LINE # 929
00C0 900000      R     MOV     DPTR,#wakeupTime
00C3 E0                MOVX    A,@DPTR
00C4 FF                MOV     R7,A
00C5 EF                MOV     A,R7
00C6 14                DEC     A
00C7 FF                MOV     R7,A
00C8 120000      R     LCALL   _CyPmCtwSetInterval
                                           ; SOURCE LINE # 932
00CB 900000      R     MOV     DPTR,#wakeupSource
00CE E0                MOVX    A,@DPTR
00CF FE                MOV     R6,A
00D0 A3                INC     DPTR
00D1 E0                MOVX    A,@DPTR
00D2 FF                MOV     R7,A
00D3 EE                MOV     A,R6
00D4 4408              ORL     A,#08H
00D6 FE                MOV     R6,A
00D7 900000      R     MOV     DPTR,#wakeupSource
00DA EE                MOV     A,R6
00DB F0                MOVX    @DPTR,A
00DC A3                INC     DPTR
00DD EF                MOV     A,R7
00DE F0                MOVX    @DPTR,A
                                           ; SOURCE LINE # 933
00DF         ?C0074:
                                           ; SOURCE LINE # 936
00DF 900000      R     MOV     DPTR,#wakeupTime
00E2 E0                MOVX    A,@DPTR
C51 COMPILER V9.51   CYPM                                                                  11/20/2019 09:16:33 PAGE 58  

00E3 FF                MOV     R7,A
00E4 EF                MOV     A,R7
00E5 B40117            CJNE    A,#01H,?C0075
                                           ; SOURCE LINE # 937
                                           ; SOURCE LINE # 939
00E8 120000      R     LCALL   CyPmOppsSet
                                           ; SOURCE LINE # 942
00EB 900000      R     MOV     DPTR,#wakeupSource
00EE E0                MOVX    A,@DPTR
00EF FE                MOV     R6,A
00F0 A3                INC     DPTR
00F1 E0                MOVX    A,@DPTR
00F2 FF                MOV     R7,A
00F3 EE                MOV     A,R6
00F4 4408              ORL     A,#08H
00F6 FE                MOV     R6,A
00F7 900000      R     MOV     DPTR,#wakeupSource
00FA EE                MOV     A,R6
00FB F0                MOVX    @DPTR,A
00FC A3                INC     DPTR
00FD EF                MOV     A,R7
00FE F0                MOVX    @DPTR,A
                                           ; SOURCE LINE # 943
00FF         ?C0075:
                                           ; SOURCE LINE # 951
00FF 904398            MOV     DPTR,#04398H
0102 E0                MOVX    A,@DPTR
0103 FF                MOV     R7,A
0104 900000      R     MOV     DPTR,#cyPmBackup+07H
0107 EF                MOV     A,R7
0108 F0                MOVX    @DPTR,A
                                           ; SOURCE LINE # 952
0109 900000      R     MOV     DPTR,#wakeupSource
010C E0                MOVX    A,@DPTR
010D FE                MOV     R6,A
010E A3                INC     DPTR
010F E0                MOVX    A,@DPTR
0110 FF                MOV     R7,A
0111 EE                MOV     A,R6
0112 C4                SWAP    A
0113 F8                MOV     R0,A
0114 54F0              ANL     A,#0F0H
0116 C8                XCH     A,R0
0117 68                XRL     A,R0
0118 FE                MOV     R6,A
0119 EF                MOV     A,R7
011A C4                SWAP    A
011B 540F              ANL     A,#0FH
011D 48                ORL     A,R0
011E FF                MOV     R7,A
011F 904398            MOV     DPTR,#04398H
0122 EF                MOV     A,R7
0123 F0                MOVX    @DPTR,A
                                           ; SOURCE LINE # 955
0124 904399            MOV     DPTR,#04399H
0127 E0                MOVX    A,@DPTR
0128 FF                MOV     R7,A
0129 900000      R     MOV     DPTR,#cyPmBackup+08H
012C EF                MOV     A,R7
012D F0                MOVX    @DPTR,A
                                           ; SOURCE LINE # 956
012E 900000      R     MOV     DPTR,#wakeupSource
C51 COMPILER V9.51   CYPM                                                                  11/20/2019 09:16:33 PAGE 59  

0131 E0                MOVX    A,@DPTR
0132 FE                MOV     R6,A
0133 A3                INC     DPTR
0134 E0                MOVX    A,@DPTR
0135 FF                MOV     R7,A
0136 EF                MOV     A,R7
0137 540F              ANL     A,#0FH
0139 FF                MOV     R7,A
013A 904399            MOV     DPTR,#04399H
013D EF                MOV     A,R7
013E F0                MOVX    @DPTR,A
                                           ; SOURCE LINE # 959
013F 90439A            MOV     DPTR,#0439AH
0142 E0                MOVX    A,@DPTR
0143 FF                MOV     R7,A
0144 900000      R     MOV     DPTR,#cyPmBackup+09H
0147 EF                MOV     A,R7
0148 F0                MOVX    @DPTR,A
                                           ; SOURCE LINE # 960
0149 900000      R     MOV     DPTR,#wakeupSource
014C E0                MOVX    A,@DPTR
014D FE                MOV     R6,A
014E A3                INC     DPTR
014F E0                MOVX    A,@DPTR
0150 FF                MOV     R7,A
0151 EE                MOV     A,R6
0152 C4                SWAP    A
0153 540F              ANL     A,#0FH
0155 FF                MOV     R7,A
0156 7E00              MOV     R6,#00H
0158 EF                MOV     A,R7
0159 5401              ANL     A,#01H
015B FF                MOV     R7,A
015C 90439A            MOV     DPTR,#0439AH
015F EF                MOV     A,R7
0160 F0                MOVX    @DPTR,A
                                           ; SOURCE LINE # 976
0161 904200            MOV     DPTR,#04200H
0164 E0                MOVX    A,@DPTR
0165 FF                MOV     R7,A
0166 EF                MOV     A,R7
0167 5407              ANL     A,#07H
0169 FF                MOV     R7,A
016A 7E00              MOV     R6,#00H
016C EF                MOV     A,R7
016D 4E                ORL     A,R6
016E 7008              JNZ     ?C0076
                                           ; SOURCE LINE # 977
                                           ; SOURCE LINE # 979
0170 900000      R     MOV     DPTR,#cyPmBackup+030H
0173 7401              MOV     A,#01H
0175 F0                MOVX    @DPTR,A
                                           ; SOURCE LINE # 980
0176 801E              SJMP    ?C0077
0178         ?C0076:
                                           ; SOURCE LINE # 982
                                           ; SOURCE LINE # 984
0178 900000      R     MOV     DPTR,#cyPmBackup+030H
017B E4                CLR     A
017C F0                MOVX    @DPTR,A
                                           ; SOURCE LINE # 987
017D 904200            MOV     DPTR,#04200H
C51 COMPILER V9.51   CYPM                                                                  11/20/2019 09:16:33 PAGE 60  

0180 E0                MOVX    A,@DPTR
0181 FF                MOV     R7,A
0182 EF                MOV     A,R7
0183 5407              ANL     A,#07H
0185 FF                MOV     R7,A
0186 900000      R     MOV     DPTR,#cyPmBackup+02FH
0189 EF                MOV     A,R7
018A F0                MOVX    @DPTR,A
                                           ; SOURCE LINE # 990
018B 904200            MOV     DPTR,#04200H
018E E0                MOVX    A,@DPTR
018F FF                MOV     R7,A
0190 EF                MOV     A,R7
0191 54F8              ANL     A,#0F8H
0193 FF                MOV     R7,A
0194 EF                MOV     A,R7
0195 F0                MOVX    @DPTR,A
                                           ; SOURCE LINE # 991
0196         ?C0077:
                                           ; SOURCE LINE # 994
0196 904393            MOV     DPTR,#04393H
0199 E0                MOVX    A,@DPTR
019A FF                MOV     R7,A
019B EF                MOV     A,R7
019C 54F8              ANL     A,#0F8H
019E FF                MOV     R7,A
019F EF                MOV     A,R7
01A0 4403              ORL     A,#03H
01A2 FF                MOV     R7,A
01A3 904393            MOV     DPTR,#04393H
01A6 EF                MOV     A,R7
01A7 F0                MOVX    @DPTR,A
                                           ; SOURCE LINE # 997
01A8 904393            MOV     DPTR,#04393H
01AB E0                MOVX    A,@DPTR
01AC FF                MOV     R7,A
                                           ; SOURCE LINE # 1000
01AD 00                NOP     
                                           ; SOURCE LINE # 1001
01AE 00                NOP     
                                           ; SOURCE LINE # 1004
01AF 00                NOP     
                                           ; SOURCE LINE # 1009
01B0 900000      R     MOV     DPTR,#cyPmBackup+030H
01B3 E0                MOVX    A,@DPTR
01B4 FF                MOV     R7,A
01B5 EF                MOV     A,R7
01B6 6401              XRL     A,#01H
01B8 6016              JZ      ?C0078
                                           ; SOURCE LINE # 1010
                                           ; SOURCE LINE # 1011
01BA 904200            MOV     DPTR,#04200H
01BD E0                MOVX    A,@DPTR
01BE FF                MOV     R7,A
01BF EF                MOV     A,R7
01C0 54F8              ANL     A,#0F8H
01C2 FF                MOV     R7,A
01C3 900000      R     MOV     DPTR,#cyPmBackup+02FH
01C6 E0                MOVX    A,@DPTR
01C7 FE                MOV     R6,A
01C8 EF                MOV     A,R7
01C9 4E                ORL     A,R6
C51 COMPILER V9.51   CYPM                                                                  11/20/2019 09:16:33 PAGE 61  

01CA FF                MOV     R7,A
01CB 904200            MOV     DPTR,#04200H
01CE EF                MOV     A,R7
01CF F0                MOVX    @DPTR,A
                                           ; SOURCE LINE # 1013
01D0         ?C0078:
                                           ; SOURCE LINE # 1029
01D0 120000      R     LCALL   CyPmHibSlpRestore
                                           ; SOURCE LINE # 1035
01D3 9046F5            MOV     DPTR,#046F5H
01D6 E0                MOVX    A,@DPTR
01D7 FF                MOV     R7,A
01D8 EF                MOV     A,R7
01D9 5407              ANL     A,#07H
01DB FF                MOV     R7,A
01DC 7E00              MOV     R6,#00H
01DE EF                MOV     A,R7
01DF 4E                ORL     A,R6
01E0 601E              JZ      ?C0079
                                           ; SOURCE LINE # 1037
                                           ; SOURCE LINE # 1038
01E2 9046EC            MOV     DPTR,#046ECH
01E5 E0                MOVX    A,@DPTR
01E6 FF                MOV     R7,A
01E7 EF                MOV     A,R7
01E8 C3                CLR     C
01E9 9405              SUBB    A,#05H
01EB 4013              JC      ?C0079
                                           ; SOURCE LINE # 1039
                                           ; SOURCE LINE # 1040
01ED 900000      R     MOV     DPTR,#cyPmBackup+06H
01F0 E0                MOVX    A,@DPTR
01F1 FF                MOV     R7,A
01F2 EF                MOV     A,R7
01F3 700B              JNZ     ?C0079
                                           ; SOURCE LINE # 1041
                                           ; SOURCE LINE # 1042
01F5 904689            MOV     DPTR,#04689H
01F8 E0                MOVX    A,@DPTR
01F9 FF                MOV     R7,A
01FA EF                MOV     A,R7
01FB 54FE              ANL     A,#0FEH
01FD FF                MOV     R7,A
01FE EF                MOV     A,R7
01FF F0                MOVX    @DPTR,A
                                           ; SOURCE LINE # 1043
                                           ; SOURCE LINE # 1044
                                           ; SOURCE LINE # 1045
0200         ?C0079:
                                           ; SOURCE LINE # 1051
0200 900000      R     MOV     DPTR,#cyPmBackup+07H
0203 E0                MOVX    A,@DPTR
0204 FF                MOV     R7,A
0205 904398            MOV     DPTR,#04398H
0208 EF                MOV     A,R7
0209 F0                MOVX    @DPTR,A
                                           ; SOURCE LINE # 1052
020A 900000      R     MOV     DPTR,#cyPmBackup+08H
020D E0                MOVX    A,@DPTR
020E FF                MOV     R7,A
020F 904399            MOV     DPTR,#04399H
0212 EF                MOV     A,R7
C51 COMPILER V9.51   CYPM                                                                  11/20/2019 09:16:33 PAGE 62  

0213 F0                MOVX    @DPTR,A
                                           ; SOURCE LINE # 1053
0214 900000      R     MOV     DPTR,#cyPmBackup+09H
0217 E0                MOVX    A,@DPTR
0218 FF                MOV     R7,A
0219 90439A            MOV     DPTR,#0439AH
021C EF                MOV     A,R7
021D F0                MOVX    @DPTR,A
                                           ; SOURCE LINE # 1056
021E 900000      R     MOV     DPTR,#interruptState
0221 E0                MOVX    A,@DPTR
0222 FF                MOV     R7,A
0223 120000      E     LCALL   _CyExitCriticalSection
                                           ; SOURCE LINE # 1057
0226         ?C0063:
0226 22                RET     
             ; FUNCTION _CyPmSleep (END)

             ; FUNCTION CyPmHibernate (BEGIN)
                                           ; SOURCE LINE # 1095
                                           ; SOURCE LINE # 1096
                                           ; SOURCE LINE # 1097
0000 7F40              MOV     R7,#040H
0002 7E00              MOV     R6,#00H
0004 120000      R     LCALL   _CyPmHibernateEx
                                           ; SOURCE LINE # 1098
0007 22                RET     
             ; FUNCTION CyPmHibernate (END)

             ; FUNCTION _CyPmHibernateEx (BEGIN)
                                           ; SOURCE LINE # 1156
0000 900000      R     MOV     DPTR,#wakeupSource
0003 EE                MOV     A,R6
0004 F0                MOVX    @DPTR,A
0005 A3                INC     DPTR
0006 EF                MOV     A,R7
0007 F0                MOVX    @DPTR,A
                                           ; SOURCE LINE # 1157
                                           ; SOURCE LINE # 1161
0008 120000      E     LCALL   CyEnterCriticalSection
000B 900000      R     MOV     DPTR,#interruptState
000E EF                MOV     A,R7
000F F0                MOVX    @DPTR,A
                                           ; SOURCE LINE # 1169
0010 904393            MOV     DPTR,#04393H
0013 E0                MOVX    A,@DPTR
0014 FF                MOV     R7,A
0015 EF                MOV     A,R7
0016 5408              ANL     A,#08H
0018 FF                MOV     R7,A
0019 7E00              MOV     R6,#00H
001B EF                MOV     A,R7
001C 4E                ORL     A,R6
001D 700D              JNZ     ?C0083
                                           ; SOURCE LINE # 1170
                                           ; SOURCE LINE # 1172
001F 904683            MOV     DPTR,#04683H
0022 E0                MOVX    A,@DPTR
0023 FF                MOV     R7,A
0024 EF                MOV     A,R7
0025 541F              ANL     A,#01FH
0027 FF                MOV     R7,A
C51 COMPILER V9.51   CYPM                                                                  11/20/2019 09:16:33 PAGE 63  

0028 EF                MOV     A,R7
0029 F0                MOVX    @DPTR,A
                                           ; SOURCE LINE # 1173
002A 8009              SJMP    ?C0084
002C         ?C0083:
                                           ; SOURCE LINE # 1175
                                           ; SOURCE LINE # 1179
002C 900000      R     MOV     DPTR,#interruptState
002F E0                MOVX    A,@DPTR
0030 FF                MOV     R7,A
0031 120000      E     LCALL   _CyExitCriticalSection
0034 22                RET     
                                           ; SOURCE LINE # 1182
0035         ?C0084:
                                           ; SOURCE LINE # 1184
0035 120000      R     LCALL   CyPmHibSaveSet
                                           ; SOURCE LINE # 1190
0038 904398            MOV     DPTR,#04398H
003B E0                MOVX    A,@DPTR
003C FF                MOV     R7,A
003D 900000      R     MOV     DPTR,#cyPmBackup+07H
0040 EF                MOV     A,R7
0041 F0                MOVX    @DPTR,A
                                           ; SOURCE LINE # 1191
0042 900000      R     MOV     DPTR,#wakeupSource
0045 E0                MOVX    A,@DPTR
0046 FE                MOV     R6,A
0047 A3                INC     DPTR
0048 E0                MOVX    A,@DPTR
0049 FF                MOV     R7,A
004A EE                MOV     A,R6
004B C4                SWAP    A
004C F8                MOV     R0,A
004D 54F0              ANL     A,#0F0H
004F C8                XCH     A,R0
0050 68                XRL     A,R0
0051 FE                MOV     R6,A
0052 EF                MOV     A,R7
0053 C4                SWAP    A
0054 540F              ANL     A,#0FH
0056 48                ORL     A,R0
0057 FF                MOV     R7,A
0058 EF                MOV     A,R7
0059 5404              ANL     A,#04H
005B FF                MOV     R7,A
005C 904398            MOV     DPTR,#04398H
005F EF                MOV     A,R7
0060 F0                MOVX    @DPTR,A
                                           ; SOURCE LINE # 1194
0061 904399            MOV     DPTR,#04399H
0064 E0                MOVX    A,@DPTR
0065 FF                MOV     R7,A
0066 900000      R     MOV     DPTR,#cyPmBackup+08H
0069 EF                MOV     A,R7
006A F0                MOVX    @DPTR,A
                                           ; SOURCE LINE # 1195
006B 900000      R     MOV     DPTR,#wakeupSource
006E E0                MOVX    A,@DPTR
006F FE                MOV     R6,A
0070 A3                INC     DPTR
0071 E0                MOVX    A,@DPTR
0072 FF                MOV     R7,A
C51 COMPILER V9.51   CYPM                                                                  11/20/2019 09:16:33 PAGE 64  

0073 EF                MOV     A,R7
0074 540F              ANL     A,#0FH
0076 FF                MOV     R7,A
0077 904399            MOV     DPTR,#04399H
007A EF                MOV     A,R7
007B F0                MOVX    @DPTR,A
                                           ; SOURCE LINE # 1197
007C 90439A            MOV     DPTR,#0439AH
007F E0                MOVX    A,@DPTR
0080 FF                MOV     R7,A
0081 900000      R     MOV     DPTR,#cyPmBackup+09H
0084 EF                MOV     A,R7
0085 F0                MOVX    @DPTR,A
                                           ; SOURCE LINE # 1198
0086 90439A            MOV     DPTR,#0439AH
0089 E4                CLR     A
008A F0                MOVX    @DPTR,A
                                           ; SOURCE LINE # 1202
008B 904200            MOV     DPTR,#04200H
008E E0                MOVX    A,@DPTR
008F FF                MOV     R7,A
0090 EF                MOV     A,R7
0091 5407              ANL     A,#07H
0093 FF                MOV     R7,A
0094 7E00              MOV     R6,#00H
0096 EF                MOV     A,R7
0097 4E                ORL     A,R6
0098 7008              JNZ     ?C0086
                                           ; SOURCE LINE # 1203
                                           ; SOURCE LINE # 1205
009A 900000      R     MOV     DPTR,#cyPmBackup+030H
009D 7401              MOV     A,#01H
009F F0                MOVX    @DPTR,A
                                           ; SOURCE LINE # 1206
00A0 801E              SJMP    ?C0087
00A2         ?C0086:
                                           ; SOURCE LINE # 1208
                                           ; SOURCE LINE # 1210
00A2 900000      R     MOV     DPTR,#cyPmBackup+030H
00A5 E4                CLR     A
00A6 F0                MOVX    @DPTR,A
                                           ; SOURCE LINE # 1213
00A7 904200            MOV     DPTR,#04200H
00AA E0                MOVX    A,@DPTR
00AB FF                MOV     R7,A
00AC EF                MOV     A,R7
00AD 5407              ANL     A,#07H
00AF FF                MOV     R7,A
00B0 900000      R     MOV     DPTR,#cyPmBackup+02FH
00B3 EF                MOV     A,R7
00B4 F0                MOVX    @DPTR,A
                                           ; SOURCE LINE # 1216
00B5 904200            MOV     DPTR,#04200H
00B8 E0                MOVX    A,@DPTR
00B9 FF                MOV     R7,A
00BA EF                MOV     A,R7
00BB 54F8              ANL     A,#0F8H
00BD FF                MOV     R7,A
00BE EF                MOV     A,R7
00BF F0                MOVX    @DPTR,A
                                           ; SOURCE LINE # 1217
00C0         ?C0087:
C51 COMPILER V9.51   CYPM                                                                  11/20/2019 09:16:33 PAGE 65  

                                           ; SOURCE LINE # 1221
00C0 904393            MOV     DPTR,#04393H
00C3 E0                MOVX    A,@DPTR
00C4 FF                MOV     R7,A
00C5 EF                MOV     A,R7
00C6 54F8              ANL     A,#0F8H
00C8 FF                MOV     R7,A
00C9 EF                MOV     A,R7
00CA 4404              ORL     A,#04H
00CC FF                MOV     R7,A
00CD 904393            MOV     DPTR,#04393H
00D0 EF                MOV     A,R7
00D1 F0                MOVX    @DPTR,A
                                           ; SOURCE LINE # 1224
00D2 904393            MOV     DPTR,#04393H
00D5 E0                MOVX    A,@DPTR
00D6 FF                MOV     R7,A
                                           ; SOURCE LINE # 1227
00D7 00                NOP     
                                           ; SOURCE LINE # 1228
00D8 00                NOP     
                                           ; SOURCE LINE # 1231
00D9 00                NOP     
                                           ; SOURCE LINE # 1238
00DA 900000      R     MOV     DPTR,#cyPmBackup+030H
00DD E0                MOVX    A,@DPTR
00DE FF                MOV     R7,A
00DF EF                MOV     A,R7
00E0 6401              XRL     A,#01H
00E2 6016              JZ      ?C0088
                                           ; SOURCE LINE # 1239
                                           ; SOURCE LINE # 1240
00E4 904200            MOV     DPTR,#04200H
00E7 E0                MOVX    A,@DPTR
00E8 FF                MOV     R7,A
00E9 EF                MOV     A,R7
00EA 54F8              ANL     A,#0F8H
00EC FF                MOV     R7,A
00ED 900000      R     MOV     DPTR,#cyPmBackup+02FH
00F0 E0                MOVX    A,@DPTR
00F1 FE                MOV     R6,A
00F2 EF                MOV     A,R7
00F3 4E                ORL     A,R6
00F4 FF                MOV     R7,A
00F5 904200            MOV     DPTR,#04200H
00F8 EF                MOV     A,R7
00F9 F0                MOVX    @DPTR,A
                                           ; SOURCE LINE # 1242
00FA         ?C0088:
                                           ; SOURCE LINE # 1246
00FA 120000      R     LCALL   CyPmHibRestore
                                           ; SOURCE LINE # 1249
00FD 900000      R     MOV     DPTR,#cyPmBackup+07H
0100 E0                MOVX    A,@DPTR
0101 FF                MOV     R7,A
0102 904398            MOV     DPTR,#04398H
0105 EF                MOV     A,R7
0106 F0                MOVX    @DPTR,A
                                           ; SOURCE LINE # 1250
0107 900000      R     MOV     DPTR,#cyPmBackup+08H
010A E0                MOVX    A,@DPTR
010B FF                MOV     R7,A
C51 COMPILER V9.51   CYPM                                                                  11/20/2019 09:16:33 PAGE 66  

010C 904399            MOV     DPTR,#04399H
010F EF                MOV     A,R7
0110 F0                MOVX    @DPTR,A
                                           ; SOURCE LINE # 1251
0111 900000      R     MOV     DPTR,#cyPmBackup+09H
0114 E0                MOVX    A,@DPTR
0115 FF                MOV     R7,A
0116 90439A            MOV     DPTR,#0439AH
0119 EF                MOV     A,R7
011A F0                MOVX    @DPTR,A
                                           ; SOURCE LINE # 1254
011B 900000      R     MOV     DPTR,#interruptState
011E E0                MOVX    A,@DPTR
011F FF                MOV     R7,A
0120 120000      E     LCALL   _CyExitCriticalSection
                                           ; SOURCE LINE # 1255
0123         ?C0085:
0123 22                RET     
             ; FUNCTION _CyPmHibernateEx (END)

             ; FUNCTION _CyPmReadStatus (BEGIN)
                                           ; SOURCE LINE # 1285
0000 900000      R     MOV     DPTR,#mask
0003 EF                MOV     A,R7
0004 F0                MOVX    @DPTR,A
                                           ; SOURCE LINE # 1286
                                           ; SOURCE LINE # 1292
0005 120000      E     LCALL   CyEnterCriticalSection
0008 900000      R     MOV     DPTR,#interruptState
000B EF                MOV     A,R7
000C F0                MOVX    @DPTR,A
                                           ; SOURCE LINE # 1295
000D 900000      R     MOV     DPTR,#interruptStatus
0010 E0                MOVX    A,@DPTR
0011 FF                MOV     R7,A
0012 904390            MOV     DPTR,#04390H
0015 E0                MOVX    A,@DPTR
0016 FE                MOV     R6,A
0017 EF                MOV     A,R7
0018 4E                ORL     A,R6
0019 FF                MOV     R7,A
001A 900000      R     MOV     DPTR,#interruptStatus
001D EF                MOV     A,R7
001E F0                MOVX    @DPTR,A
                                           ; SOURCE LINE # 1296
001F 900000      R     MOV     DPTR,#interruptStatus
0022 E0                MOVX    A,@DPTR
0023 FF                MOV     R7,A
0024 EF                MOV     A,R7
0025 5407              ANL     A,#07H
0027 FF                MOV     R7,A
0028 900000      R     MOV     DPTR,#tmpStatus
002B EF                MOV     A,R7
002C F0                MOVX    @DPTR,A
                                           ; SOURCE LINE # 1297
002D 900000      R     MOV     DPTR,#interruptStatus
0030 E0                MOVX    A,@DPTR
0031 FF                MOV     R7,A
0032 900000      R     MOV     DPTR,#mask
0035 E0                MOVX    A,@DPTR
0036 FE                MOV     R6,A
0037 EE                MOV     A,R6
C51 COMPILER V9.51   CYPM                                                                  11/20/2019 09:16:33 PAGE 67  

0038 F4                CPL     A
0039 FE                MOV     R6,A
003A EF                MOV     A,R7
003B 5E                ANL     A,R6
003C FF                MOV     R7,A
003D 900000      R     MOV     DPTR,#interruptStatus
0040 EF                MOV     A,R7
0041 F0                MOVX    @DPTR,A
                                           ; SOURCE LINE # 1300
0042 900000      R     MOV     DPTR,#interruptState
0045 E0                MOVX    A,@DPTR
0046 FF                MOV     R7,A
0047 120000      E     LCALL   _CyExitCriticalSection
                                           ; SOURCE LINE # 1302
004A 900000      R     MOV     DPTR,#tmpStatus
004D E0                MOVX    A,@DPTR
004E FF                MOV     R7,A
                                           ; SOURCE LINE # 1303
004F         ?C0089:
004F 22                RET     
             ; FUNCTION _CyPmReadStatus (END)

             ; FUNCTION CyPmHibSaveSet (BEGIN)
